{
  "contractName": "CasinoRoulette",
  "abi": [
    {
      "constant": true,
      "inputs": [
        {
          "name": "",
          "type": "uint256"
        }
      ],
      "name": "bets",
      "outputs": [
        {
          "name": "user",
          "type": "address"
        },
        {
          "name": "amount",
          "type": "uint256"
        },
        {
          "name": "betType",
          "type": "uint8"
        },
        {
          "name": "block",
          "type": "uint256"
        },
        {
          "name": "choice",
          "type": "int256"
        }
      ],
      "payable": false,
      "stateMutability": "view",
      "type": "function",
      "signature": "0x22af00fa"
    },
    {
      "constant": true,
      "inputs": [
        {
          "name": "",
          "type": "uint256"
        }
      ],
      "name": "RED_NUMBERS",
      "outputs": [
        {
          "name": "",
          "type": "uint8"
        }
      ],
      "payable": false,
      "stateMutability": "view",
      "type": "function",
      "signature": "0x29607a23"
    },
    {
      "constant": true,
      "inputs": [],
      "name": "NUM_POCKETS",
      "outputs": [
        {
          "name": "",
          "type": "uint256"
        }
      ],
      "payable": false,
      "stateMutability": "view",
      "type": "function",
      "signature": "0x4b2fd52e"
    },
    {
      "constant": true,
      "inputs": [
        {
          "name": "",
          "type": "int256"
        }
      ],
      "name": "COLORS",
      "outputs": [
        {
          "name": "",
          "type": "int256"
        }
      ],
      "payable": false,
      "stateMutability": "view",
      "type": "function",
      "signature": "0x5c5d0694"
    },
    {
      "constant": true,
      "inputs": [],
      "name": "counter",
      "outputs": [
        {
          "name": "",
          "type": "uint256"
        }
      ],
      "payable": false,
      "stateMutability": "view",
      "type": "function",
      "signature": "0x61bc221a"
    },
    {
      "constant": true,
      "inputs": [],
      "name": "owner",
      "outputs": [
        {
          "name": "",
          "type": "address"
        }
      ],
      "payable": false,
      "stateMutability": "view",
      "type": "function",
      "signature": "0x8da5cb5b"
    },
    {
      "constant": true,
      "inputs": [
        {
          "name": "",
          "type": "uint256"
        }
      ],
      "name": "BLACK_NUMBERS",
      "outputs": [
        {
          "name": "",
          "type": "uint8"
        }
      ],
      "payable": false,
      "stateMutability": "view",
      "type": "function",
      "signature": "0x98ebcde9"
    },
    {
      "inputs": [],
      "payable": false,
      "stateMutability": "nonpayable",
      "type": "constructor",
      "signature": "constructor"
    },
    {
      "anonymous": false,
      "inputs": [
        {
          "indexed": false,
          "name": "user",
          "type": "address"
        },
        {
          "indexed": false,
          "name": "amount",
          "type": "uint256"
        },
        {
          "indexed": false,
          "name": "betType",
          "type": "uint8"
        },
        {
          "indexed": false,
          "name": "block",
          "type": "uint256"
        },
        {
          "indexed": false,
          "name": "choice",
          "type": "int256"
        }
      ],
      "name": "BetPlaced",
      "type": "event",
      "signature": "0x073b5ec4b380fe7946a919d4f1e878d05d0ae97a6c7002d7fdda01784db87cd9"
    },
    {
      "anonymous": false,
      "inputs": [
        {
          "indexed": false,
          "name": "id",
          "type": "uint256"
        },
        {
          "indexed": false,
          "name": "landed",
          "type": "int256"
        }
      ],
      "name": "Spin",
      "type": "event",
      "signature": "0x4350214c929aa73a0cb53c5b6c7df00bbceb5135d9e2918f8c6c8021172ab9e9"
    },
    {
      "constant": false,
      "inputs": [
        {
          "name": "betType",
          "type": "uint8"
        },
        {
          "name": "choice",
          "type": "int256"
        }
      ],
      "name": "wager",
      "outputs": [],
      "payable": true,
      "stateMutability": "payable",
      "type": "function",
      "signature": "0x8311e9c4"
    },
    {
      "constant": false,
      "inputs": [
        {
          "name": "id",
          "type": "uint256"
        }
      ],
      "name": "spin",
      "outputs": [],
      "payable": false,
      "stateMutability": "nonpayable",
      "type": "function",
      "signature": "0xa5b6ea8f"
    },
    {
      "constant": false,
      "inputs": [],
      "name": "fund",
      "outputs": [],
      "payable": true,
      "stateMutability": "payable",
      "type": "function",
      "signature": "0xb60d4288"
    },
    {
      "constant": false,
      "inputs": [],
      "name": "kill",
      "outputs": [],
      "payable": false,
      "stateMutability": "nonpayable",
      "type": "function",
      "signature": "0x41c0e1b5"
    }
  ],
  "bytecode": "0x608060405261024060405190810160405280600160ff168152602001600360ff168152602001600560ff168152602001600760ff168152602001600960ff168152602001600c60ff168152602001600e60ff168152602001601060ff168152602001601260ff168152602001601360ff168152602001601560ff168152602001601760ff168152602001601960ff168152602001601b60ff168152602001601e60ff168152602001602060ff168152602001602260ff168152602001602460ff1681525060009060126100d3929190610258565b5061024060405190810160405280600260ff168152602001600460ff168152602001600660ff168152602001600860ff168152602001600a60ff168152602001600b60ff168152602001600d60ff168152602001600f60ff168152602001601160ff168152602001601460ff168152602001601660ff168152602001601860ff168152602001601a60ff168152602001601c60ff168152602001601d60ff168152602001601f60ff168152602001602160ff168152602001602360ff1681525060019060126101a3929190610258565b5060006004553480156101b557600080fd5b5033600360006101000a81548173ffffffffffffffffffffffffffffffffffffffff021916908373ffffffffffffffffffffffffffffffffffffffff16021790555060008090505b601281101561025257600160026000808460128110151561021a57fe5b602091828204019190069054906101000a900460ff1660ff1681526020019081526020016000208190555080806001019150506101fd565b50610322565b826012601f016020900481019282156102e15791602002820160005b838211156102b257835183826101000a81548160ff021916908360ff1602179055509260200192600101602081600001049283019260010302610274565b80156102df5782816101000a81549060ff02191690556001016020816000010492830192600103026102b2565b505b5090506102ee91906102f2565b5090565b61031f91905b8082111561031b57600081816101000a81549060ff0219169055506001016102f8565b5090565b90565b610a56806103316000396000f3fe6080604052600436106100af576000357c0100000000000000000000000000000000000000000000000000000000900463ffffffff16806322af00fa146100b457806329607a231461015957806341c0e1b5146101ae5780634b2fd52e146101c55780635c5d0694146101f057806361bc221a1461023f5780638311e9c41461026a5780638da5cb5b146102a557806398ebcde9146102fc578063a5b6ea8f14610351578063b60d42881461038c575b600080fd5b3480156100c057600080fd5b506100ed600480360360208110156100d757600080fd5b8101908080359060200190929190505050610396565b604051808673ffffffffffffffffffffffffffffffffffffffff1673ffffffffffffffffffffffffffffffffffffffff16815260200185815260200184600181111561013557fe5b60ff1681526020018381526020018281526020019550505050505060405180910390f35b34801561016557600080fd5b506101926004803603602081101561017c57600080fd5b81019080803590602001909291905050506103f9565b604051808260ff1660ff16815260200191505060405180910390f35b3480156101ba57600080fd5b506101c3610422565b005b3480156101d157600080fd5b506101da6104b9565b6040518082815260200191505060405180910390f35b3480156101fc57600080fd5b506102296004803603602081101561021357600080fd5b81019080803590602001909291905050506104be565b6040518082815260200191505060405180910390f35b34801561024b57600080fd5b506102546104d6565b6040518082815260200191505060405180910390f35b6102a36004803603604081101561028057600080fd5b81019080803560ff169060200190929190803590602001909291905050506104dc565b005b3480156102b157600080fd5b506102ba610702565b604051808273ffffffffffffffffffffffffffffffffffffffff1673ffffffffffffffffffffffffffffffffffffffff16815260200191505060405180910390f35b34801561030857600080fd5b506103356004803603602081101561031f57600080fd5b8101908080359060200190929190505050610728565b604051808260ff1660ff16815260200191505060405180910390f35b34801561035d57600080fd5b5061038a6004803603602081101561037457600080fd5b8101908080359060200190929190505050610751565b005b610394610a28565b005b60056020528060005260406000206000915090508060000160009054906101000a900473ffffffffffffffffffffffffffffffffffffffff16908060010154908060020160009054906101000a900460ff16908060030154908060040154905085565b60008160128110151561040857fe5b60209182820401919006915054906101000a900460ff1681565b600360009054906101000a900473ffffffffffffffffffffffffffffffffffffffff1673ffffffffffffffffffffffffffffffffffffffff163373ffffffffffffffffffffffffffffffffffffffff1614151561047e57600080fd5b600360009054906101000a900473ffffffffffffffffffffffffffffffffffffffff1673ffffffffffffffffffffffffffffffffffffffff16ff5b602681565b60026020528060005260406000206000915090505481565b60045481565b6000341115156104eb57600080fd5b600060018111156104f857fe5b82600181111561050457fe5b14156105295760008114806105195750600181145b151561052457600080fd5b610566565b7fffffffffffffffffffffffffffffffffffffffffffffffffffffffffffffffff811215801561055a575060248113155b151561056557600080fd5b5b60046000815480929190600101919050555060a0604051908101604052803373ffffffffffffffffffffffffffffffffffffffff1681526020013481526020018360018111156105b257fe5b81526020016003430181526020018281525060056000600454815260200190815260200160002060008201518160000160006101000a81548173ffffffffffffffffffffffffffffffffffffffff021916908373ffffffffffffffffffffffffffffffffffffffff1602179055506020820151816001015560408201518160020160006101000a81548160ff0219169083600181111561064e57fe5b021790555060608201518160030155608082015181600401559050507f073b5ec4b380fe7946a919d4f1e878d05d0ae97a6c7002d7fdda01784db87cd93334846003430185604051808673ffffffffffffffffffffffffffffffffffffffff1673ffffffffffffffffffffffffffffffffffffffff1681526020018581526020018460018111156106db57fe5b60ff1681526020018381526020018281526020019550505050505060405180910390a15050565b600360009054906101000a900473ffffffffffffffffffffffffffffffffffffffff1681565b60018160128110151561073757fe5b60209182820401919006915054906101000a900460ff1681565b60006005600083815260200190815260200160002090508060000160009054906101000a900473ffffffffffffffffffffffffffffffffffffffff1673ffffffffffffffffffffffffffffffffffffffff163373ffffffffffffffffffffffffffffffffffffffff161415156107c657600080fd5b806003015443101515156107d957600080fd5b60ff81600301540143111515156107ef57600080fd5b6000816003015440836040516020018083815260200182815260200192505050604051602081830303815290604052805190602001209050600060016026836001900481151561083b57fe5b060390506000600181111561084c57fe5b8360020160009054906101000a900460ff16600181111561086957fe5b14156108ee57600081138015610895575082600401546002600083815260200190815260200160002054145b156108e9573373ffffffffffffffffffffffffffffffffffffffff166108fc60028560010154029081150290604051600060405180830381858888f193505050501580156108e7573d6000803e3d6000fd5b505b61097a565b6001808111156108fa57fe5b8360020160009054906101000a900460ff16600181111561091757fe5b1415610979578260040154811415610978573373ffffffffffffffffffffffffffffffffffffffff166108fc60238560010154029081150290604051600060405180830381858888f19350505050158015610976573d6000803e3d6000fd5b505b5b5b60056000858152602001908152602001600020600080820160006101000a81549073ffffffffffffffffffffffffffffffffffffffff021916905560018201600090556002820160006101000a81549060ff02191690556003820160009055600482016000905550507f4350214c929aa73a0cb53c5b6c7df00bbceb5135d9e2918f8c6c8021172ab9e98482604051808381526020018281526020019250505060405180910390a150505050565b56fea165627a7a72305820f5e997477e33bad914ad86366bd05dfa9f0308d162858601130938a5ddffb4440029",
  "source": "pragma solidity ^0.5.0;\n\ncontract CasinoRoulette {\n    enum BetType { Color, Number }\n\n    struct Bet {\n        address user;\n        uint amount;\n        BetType betType;\n        uint block;\n\n        // @prop choice: interpretation is based on BetType\n            // BetType.Color: 0=black, 1=red\n            // BetType.Number: -1=00, 0-36 for individual numbers\n        int choice;\n    }\n\n    uint public constant NUM_POCKETS = 38;\n    // RED_NUMBERS and BLACK_NUMBERS are constant, but\n    // Solidity doesn't support array constants yet so\n    // we use storage arrays instead\n    uint8[18] public RED_NUMBERS = [\n        1, 3, 5, 7, 9, 12,\n        14, 16, 18, 19, 21, 23,\n        25, 27, 30, 32, 34, 36\n    ];\n    uint8[18] public BLACK_NUMBERS = [\n        2, 4, 6, 8, 10, 11,\n        13, 15, 17, 20, 22, 24,\n        26, 28, 29, 31, 33, 35\n    ];\n    // maps wheel numbers to colors\n    mapping(int => int) public COLORS;\n\n    address payable public owner;\n    uint public counter = 0;\n    mapping(uint => Bet) public bets;\n\n    event BetPlaced(address user, uint amount, BetType betType, uint block, int choice);\n    event Spin(uint id, int landed);\n\n    constructor () public {\n        owner = msg.sender;\n        for (uint i=0; i < 18; i++) {\n            COLORS[RED_NUMBERS[i]] = 1;\n        }\n    }\n\n    function wager (BetType betType, int choice) payable public {\n        require(msg.value > 0);\n        if (betType == BetType.Color)\n            require(choice == 0 || choice == 1);\n        else\n            require(choice >= -1 && choice <= 36);\n        counter++;\n        bets[counter] = Bet(msg.sender, msg.value, betType, block.number + 3, choice);\n        emit BetPlaced(msg.sender, msg.value, betType, block.number + 3, choice);\n    }\n\n    function spin (uint id) public {\n        Bet storage bet = bets[id];\n        require(msg.sender == bet.user);\n        require(block.number >= bet.block);\n        require(block.number <= bet.block + 255);\n\n        bytes32 random = keccak256(abi.encodePacked(blockhash(bet.block), id));\n        int landed = int(uint(random) % NUM_POCKETS) - 1;\n\n        if (bet.betType == BetType.Color) {\n            if (landed > 0 && COLORS[landed] == bet.choice)\n                msg.sender.transfer(bet.amount * 2);\n        }\n        else if (bet.betType == BetType.Number) {\n            if (landed == bet.choice)\n                msg.sender.transfer(bet.amount * 35);\n        }\n\n        delete bets[id];\n        emit Spin(id, landed);\n    }\n\n    function fund () public payable {}\n\n    function kill () public {\n        require(msg.sender == owner);\n        selfdestruct(owner);\n    }\n}\n",
  "sourcePath": "/Users/mettinger/github/casino/contracts/casinoRoulette.sol",
  "compiler": {
    "name": "solc",
    "version": "0.5.0+commit.1d4f565a.Emscripten.clang"
  },
  "schemaVersion": "3.0.1",
  "updatedAt": "2019-01-13T15:05:45.491Z",
  "devdoc": {
    "methods": {}
  },
  "userdoc": {
    "methods": {}
  }
}