{
  "contractName": "SlotMachine",
  "abi": [
    {
      "constant": true,
      "inputs": [
        {
          "name": "",
          "type": "uint256"
        }
      ],
      "name": "bets",
      "outputs": [
        {
          "name": "user",
          "type": "address"
        },
        {
          "name": "amount",
          "type": "uint256"
        },
        {
          "name": "block",
          "type": "uint256"
        }
      ],
      "payable": false,
      "stateMutability": "view",
      "type": "function"
    },
    {
      "constant": true,
      "inputs": [],
      "name": "counter",
      "outputs": [
        {
          "name": "",
          "type": "uint256"
        }
      ],
      "payable": false,
      "stateMutability": "view",
      "type": "function"
    },
    {
      "constant": true,
      "inputs": [],
      "name": "maxBetBalanceDivisor",
      "outputs": [
        {
          "name": "",
          "type": "uint256"
        }
      ],
      "payable": false,
      "stateMutability": "view",
      "type": "function"
    },
    {
      "constant": true,
      "inputs": [
        {
          "name": "",
          "type": "address"
        }
      ],
      "name": "houseAccounts",
      "outputs": [
        {
          "name": "",
          "type": "uint256"
        }
      ],
      "payable": false,
      "stateMutability": "view",
      "type": "function"
    },
    {
      "constant": true,
      "inputs": [
        {
          "name": "",
          "type": "address"
        }
      ],
      "name": "housePercentages",
      "outputs": [
        {
          "name": "numerator",
          "type": "uint256"
        },
        {
          "name": "denominator",
          "type": "uint256"
        }
      ],
      "payable": false,
      "stateMutability": "view",
      "type": "function"
    },
    {
      "constant": true,
      "inputs": [],
      "name": "owner",
      "outputs": [
        {
          "name": "",
          "type": "address"
        }
      ],
      "payable": false,
      "stateMutability": "view",
      "type": "function"
    },
    {
      "constant": true,
      "inputs": [],
      "name": "minBet",
      "outputs": [
        {
          "name": "",
          "type": "uint256"
        }
      ],
      "payable": false,
      "stateMutability": "view",
      "type": "function"
    },
    {
      "constant": true,
      "inputs": [
        {
          "name": "",
          "type": "uint256"
        },
        {
          "name": "",
          "type": "uint256"
        }
      ],
      "name": "outcomes",
      "outputs": [
        {
          "name": "",
          "type": "uint256"
        }
      ],
      "payable": false,
      "stateMutability": "view",
      "type": "function"
    },
    {
      "constant": true,
      "inputs": [
        {
          "name": "",
          "type": "uint256"
        }
      ],
      "name": "houseMemberArray",
      "outputs": [
        {
          "name": "",
          "type": "address"
        }
      ],
      "payable": false,
      "stateMutability": "view",
      "type": "function"
    },
    {
      "constant": true,
      "inputs": [],
      "name": "nonce",
      "outputs": [
        {
          "name": "",
          "type": "uint256"
        }
      ],
      "payable": false,
      "stateMutability": "view",
      "type": "function"
    },
    {
      "constant": true,
      "inputs": [
        {
          "name": "",
          "type": "uint256"
        }
      ],
      "name": "spun",
      "outputs": [
        {
          "name": "",
          "type": "bool"
        }
      ],
      "payable": false,
      "stateMutability": "view",
      "type": "function"
    },
    {
      "constant": true,
      "inputs": [
        {
          "name": "",
          "type": "uint256"
        }
      ],
      "name": "numSymbols",
      "outputs": [
        {
          "name": "",
          "type": "uint256"
        }
      ],
      "payable": false,
      "stateMutability": "view",
      "type": "function"
    },
    {
      "constant": true,
      "inputs": [
        {
          "name": "",
          "type": "uint256"
        }
      ],
      "name": "machine",
      "outputs": [
        {
          "name": "probDenominator",
          "type": "uint256"
        }
      ],
      "payable": false,
      "stateMutability": "view",
      "type": "function"
    },
    {
      "inputs": [],
      "payable": true,
      "stateMutability": "payable",
      "type": "constructor"
    },
    {
      "anonymous": false,
      "inputs": [
        {
          "indexed": false,
          "name": "id",
          "type": "uint256"
        },
        {
          "indexed": false,
          "name": "real0",
          "type": "uint256"
        },
        {
          "indexed": false,
          "name": "real1",
          "type": "uint256"
        },
        {
          "indexed": false,
          "name": "award",
          "type": "uint256"
        }
      ],
      "name": "Spin",
      "type": "event"
    },
    {
      "anonymous": false,
      "inputs": [
        {
          "indexed": false,
          "name": "user",
          "type": "address"
        },
        {
          "indexed": false,
          "name": "amount",
          "type": "uint256"
        },
        {
          "indexed": false,
          "name": "block",
          "type": "uint256"
        },
        {
          "indexed": false,
          "name": "counter",
          "type": "uint256"
        }
      ],
      "name": "BetPlaced",
      "type": "event"
    },
    {
      "constant": false,
      "inputs": [],
      "name": "wager",
      "outputs": [],
      "payable": true,
      "stateMutability": "payable",
      "type": "function"
    },
    {
      "constant": false,
      "inputs": [
        {
          "name": "id",
          "type": "uint256"
        }
      ],
      "name": "outcomeDetermine",
      "outputs": [],
      "payable": false,
      "stateMutability": "nonpayable",
      "type": "function"
    },
    {
      "constant": false,
      "inputs": [
        {
          "name": "id",
          "type": "uint256"
        }
      ],
      "name": "spin",
      "outputs": [],
      "payable": false,
      "stateMutability": "nonpayable",
      "type": "function"
    },
    {
      "constant": true,
      "inputs": [
        {
          "name": "id",
          "type": "uint256"
        }
      ],
      "name": "outcomeGet",
      "outputs": [
        {
          "name": "",
          "type": "uint256[2]"
        }
      ],
      "payable": false,
      "stateMutability": "view",
      "type": "function"
    },
    {
      "constant": false,
      "inputs": [
        {
          "name": "addressToAdd",
          "type": "address"
        },
        {
          "name": "initialFund",
          "type": "uint256"
        }
      ],
      "name": "addMember",
      "outputs": [],
      "payable": false,
      "stateMutability": "nonpayable",
      "type": "function"
    },
    {
      "constant": false,
      "inputs": [],
      "name": "fund",
      "outputs": [],
      "payable": true,
      "stateMutability": "payable",
      "type": "function"
    },
    {
      "constant": false,
      "inputs": [],
      "name": "calculateHousePercentages",
      "outputs": [],
      "payable": false,
      "stateMutability": "nonpayable",
      "type": "function"
    },
    {
      "constant": false,
      "inputs": [
        {
          "name": "houseMember",
          "type": "address"
        }
      ],
      "name": "houseRemoveMember",
      "outputs": [],
      "payable": false,
      "stateMutability": "nonpayable",
      "type": "function"
    },
    {
      "constant": false,
      "inputs": [
        {
          "name": "houseMember",
          "type": "address"
        }
      ],
      "name": "houseWithdraw",
      "outputs": [],
      "payable": false,
      "stateMutability": "nonpayable",
      "type": "function"
    },
    {
      "constant": true,
      "inputs": [],
      "name": "getBalance",
      "outputs": [
        {
          "name": "",
          "type": "uint256"
        }
      ],
      "payable": false,
      "stateMutability": "view",
      "type": "function"
    },
    {
      "constant": false,
      "inputs": [],
      "name": "kill",
      "outputs": [],
      "payable": false,
      "stateMutability": "nonpayable",
      "type": "function"
    }
  ],
  "bytecode": "0x608060405260006001556000600455600a6024556001602555336000806101000a81548173ffffffffffffffffffffffffffffffffffffffff021916908373ffffffffffffffffffffffffffffffffffffffff1602179055506200007162000077640100000000026401000000009004565b620002e8565b6064602060006002811015156200008a57fe5b6002020160000181905550608060405190810160405280603160ff168152602001606160ff168152602001606260ff168152602001606360ff1681525060206000600281101515620000d857fe5b60020201600101906004620000ef92919062000269565b506064602060016002811015156200010357fe5b6002020160000181905550608060405190810160405280600160ff168152602001600260ff168152602001603260ff168152602001606360ff16815250602060016002811015156200015157fe5b600202016001019060046200016892919062000269565b5060008090505b600260ff168160ff1610156200020b57600160208260ff166002811015156200019457fe5b60020201600001540360208260ff16600281101515620001b057fe5b60020201600101600160208460ff16600281101515620001cc57fe5b600202016001018054905003815481101515620001e557fe5b9060005260206000200154141515620001fd57600080fd5b80806001019150506200016f565b5060008090505b600260ff168160ff161015620002665760208160ff166002811015156200023557fe5b6002020160010180549050601e8260ff166002811015156200025357fe5b0181905550808060010191505062000212565b50565b828054828255906000526020600020908101928215620002ad579160200282015b82811115620002ac578251829060ff169055916020019190600101906200028a565b5b509050620002bc9190620002c0565b5090565b620002e591905b80821115620002e1576000816000905550600101620002c7565b5090565b90565b61179680620002f86000396000f3fe60806040526004361061013e576000357c0100000000000000000000000000000000000000000000000000000000900463ffffffff1680630396df431461014357806312065fe01461019457806322af00fa146101bf57806340d36d0d1461024857806341c0e1b51461028357806361bc221a1461029a578063667d5d22146102c5578063687a6a78146102cf5780637bef46f5146102fa5780638c7fbb631461035f5780638da5cb5b146103cb5780639619367d14610422578063962254a41461044d57806398041ea3146104a6578063988a2312146105015780639e30f05d14610518578063a5b6ea8f14610593578063affed0e0146105ce578063b60d4288146105f9578063b90da3ad14610603578063d692857514610656578063e64d567b146106a5578063e9d3ea6b1461071c578063f797a8191461076d575b600080fd5b34801561014f57600080fd5b506101926004803603602081101561016657600080fd5b81019080803573ffffffffffffffffffffffffffffffffffffffff1690602001909291905050506107bc565b005b3480156101a057600080fd5b506101a96108d3565b6040518082815260200191505060405180910390f35b3480156101cb57600080fd5b506101f8600480360360208110156101e257600080fd5b81019080803590602001909291905050506108f2565b604051808473ffffffffffffffffffffffffffffffffffffffff1673ffffffffffffffffffffffffffffffffffffffff168152602001838152602001828152602001935050505060405180910390f35b34801561025457600080fd5b506102816004803603602081101561026b57600080fd5b810190808035906020019092919050505061093c565b005b34801561028f57600080fd5b50610298610a2c565b005b3480156102a657600080fd5b506102af610ac1565b6040518082815260200191505060405180910390f35b6102cd610ac7565b005b3480156102db57600080fd5b506102e4610c47565b6040518082815260200191505060405180910390f35b34801561030657600080fd5b506103496004803603602081101561031d57600080fd5b81019080803573ffffffffffffffffffffffffffffffffffffffff169060200190929190505050610c4d565b6040518082815260200191505060405180910390f35b34801561036b57600080fd5b506103ae6004803603602081101561038257600080fd5b81019080803573ffffffffffffffffffffffffffffffffffffffff169060200190929190505050610c65565b604051808381526020018281526020019250505060405180910390f35b3480156103d757600080fd5b506103e0610c89565b604051808273ffffffffffffffffffffffffffffffffffffffff1673ffffffffffffffffffffffffffffffffffffffff16815260200191505060405180910390f35b34801561042e57600080fd5b50610437610cae565b6040518082815260200191505060405180910390f35b34801561045957600080fd5b506104906004803603604081101561047057600080fd5b810190808035906020019092919080359060200190929190505050610cb4565b6040518082815260200191505060405180910390f35b3480156104b257600080fd5b506104ff600480360360408110156104c957600080fd5b81019080803573ffffffffffffffffffffffffffffffffffffffff16906020019092919080359060200190929190505050610cdb565b005b34801561050d57600080fd5b50610516611099565b005b34801561052457600080fd5b506105516004803603602081101561053b57600080fd5b810190808035906020019092919050505061122c565b604051808273ffffffffffffffffffffffffffffffffffffffff1673ffffffffffffffffffffffffffffffffffffffff16815260200191505060405180910390f35b34801561059f57600080fd5b506105cc600480360360208110156105b657600080fd5b8101908080359060200190929190505050611261565b005b3480156105da57600080fd5b506105e3611477565b6040518082815260200191505060405180910390f35b61060161147d565b005b34801561060f57600080fd5b5061063c6004803603602081101561062657600080fd5b8101908080359060200190929190505050611491565b604051808215151515815260200191505060405180910390f35b34801561066257600080fd5b5061068f6004803603602081101561067957600080fd5b81019080803590602001909291905050506114b1565b6040518082815260200191505060405180910390f35b3480156106b157600080fd5b506106de600480360360208110156106c857600080fd5b81019080803590602001909291905050506114cb565b6040518082600260200280838360005b838110156107095780820151818401526020810190506106ee565b5050505090500191505060405180910390f35b34801561072857600080fd5b5061076b6004803603602081101561073f57600080fd5b81019080803573ffffffffffffffffffffffffffffffffffffffff169060200190929190505050611529565b005b34801561077957600080fd5b506107a66004803603602081101561079057600080fd5b81019080803590602001909291905050506115ce565b6040518082815260200191505060405180910390f35b6000600960008373ffffffffffffffffffffffffffffffffffffffff1673ffffffffffffffffffffffffffffffffffffffff1681526020019081526020016000205411156108d0578073ffffffffffffffffffffffffffffffffffffffff166108fc600960008473ffffffffffffffffffffffffffffffffffffffff1673ffffffffffffffffffffffffffffffffffffffff168152602001908152602001600020549081150290604051600060405180830381858888f19350505050158015610889573d6000803e3d6000fd5b506000600960008373ffffffffffffffffffffffffffffffffffffffff1673ffffffffffffffffffffffffffffffffffffffff168152602001908152602001600020819055505b50565b60003073ffffffffffffffffffffffffffffffffffffffff1631905090565b60026020528060005260406000206000915090508060000160009054906101000a900473ffffffffffffffffffffffffffffffffffffffff16908060010154908060020154905083565b600080600090505b600260ff16811015610a035761096f60208260028110151561096257fe5b60020201600001546115f1565b915060008090505b60208260028110151561098657fe5b60020201600101805490508110156109f5576020826002811015156109a757fe5b60020201600101818154811015156109bb57fe5b9060005260206000200154831115156109e857806005836002811015156109de57fe5b01819055506109f5565b8080600101915050610977565b508080600101915050610944565b50600560036000848152602001908152602001600020906002610a279291906116e6565b505050565b6000809054906101000a900473ffffffffffffffffffffffffffffffffffffffff1673ffffffffffffffffffffffffffffffffffffffff163373ffffffffffffffffffffffffffffffffffffffff16141515610a8757600080fd5b6000809054906101000a900473ffffffffffffffffffffffffffffffffffffffff1673ffffffffffffffffffffffffffffffffffffffff16ff5b60015481565b6025543410151515610ad857600080fd5b6024543073ffffffffffffffffffffffffffffffffffffffff1631811515610afc57fe5b043411151515610b0b57600080fd5b6060604051908101604052803373ffffffffffffffffffffffffffffffffffffffff1681526020013481526020016000430181525060026000600154815260200190815260200160002060008201518160000160006101000a81548173ffffffffffffffffffffffffffffffffffffffff021916908373ffffffffffffffffffffffffffffffffffffffff16021790555060208201518160010155604082015181600201559050507f7363e6581df4db69463222156be4a09656528b9f1302890fa4c0b60819b69fc6333460034301600154604051808573ffffffffffffffffffffffffffffffffffffffff1673ffffffffffffffffffffffffffffffffffffffff16815260200184815260200183815260200182815260200194505050505060405180910390a1600160008154809291906001019190505550565b60245481565b60096020528060005260406000206000915090505481565b60086020528060005260406000206000915090508060000154908060010154905082565b6000809054906101000a900473ffffffffffffffffffffffffffffffffffffffff1681565b60255481565b600360205281600052604060002081600281101515610ccf57fe5b01600091509150505481565b600060096000600a6000601481101515610cf157fe5b0160009054906101000a900473ffffffffffffffffffffffffffffffffffffffff1673ffffffffffffffffffffffffffffffffffffffff1673ffffffffffffffffffffffffffffffffffffffff1681526020019081526020016000205490506000809050600080600090505b6014811015610f8857600a81601481101515610d7557fe5b0160009054906101000a900473ffffffffffffffffffffffffffffffffffffffff1691506000600960008473ffffffffffffffffffffffffffffffffffffffff1673ffffffffffffffffffffffffffffffffffffffff168152602001908152602001600020541415610e8e57610dea826107bc565b85600a82601481101515610dfa57fe5b0160006101000a81548173ffffffffffffffffffffffffffffffffffffffff021916908373ffffffffffffffffffffffffffffffffffffffff16021790555084600960008473ffffffffffffffffffffffffffffffffffffffff1673ffffffffffffffffffffffffffffffffffffffff16815260200190815260200160002081905550610e85611099565b50505050611095565b8360096000600a84601481101515610ea257fe5b0160009054906101000a900473ffffffffffffffffffffffffffffffffffffffff1673ffffffffffffffffffffffffffffffffffffffff1673ffffffffffffffffffffffffffffffffffffffff168152602001908152602001600020541015610f7b5760096000600a83601481101515610f1857fe5b0160009054906101000a900473ffffffffffffffffffffffffffffffffffffffff1673ffffffffffffffffffffffffffffffffffffffff1673ffffffffffffffffffffffffffffffffffffffff1681526020019081526020016000205493508092505b8080600101915050610d5d565b50606460148402811515610f9857fe5b04830184111561108157600a82601481101515610fb157fe5b0160009054906101000a900473ffffffffffffffffffffffffffffffffffffffff169050610fde816107bc565b84600a83601481101515610fee57fe5b0160006101000a81548173ffffffffffffffffffffffffffffffffffffffff021916908373ffffffffffffffffffffffffffffffffffffffff16021790555083600960008373ffffffffffffffffffffffffffffffffffffffff1673ffffffffffffffffffffffffffffffffffffffff16815260200190815260200160002081905550611079611099565b505050611095565b6001600014151561109157600080fd5b5050505b5050565b60008090505b60148110156112295760096000600a836014811015156110bb57fe5b0160009054906101000a900473ffffffffffffffffffffffffffffffffffffffff1673ffffffffffffffffffffffffffffffffffffffff1673ffffffffffffffffffffffffffffffffffffffff1681526020019081526020016000205460086000600a8460148110151561112b57fe5b0160009054906101000a900473ffffffffffffffffffffffffffffffffffffffff1673ffffffffffffffffffffffffffffffffffffffff1673ffffffffffffffffffffffffffffffffffffffff168152602001908152602001600020600001819055503073ffffffffffffffffffffffffffffffffffffffff163160086000600a846014811015156111b957fe5b0160009054906101000a900473ffffffffffffffffffffffffffffffffffffffff1673ffffffffffffffffffffffffffffffffffffffff1673ffffffffffffffffffffffffffffffffffffffff16815260200190815260200160002060010181905550808060010191505061109f565b50565b600a8160148110151561123b57fe5b016000915054906101000a900473ffffffffffffffffffffffffffffffffffffffff1681565b60006002600083815260200190815260200160002090508060000160009054906101000a900473ffffffffffffffffffffffffffffffffffffffff1673ffffffffffffffffffffffffffffffffffffffff163373ffffffffffffffffffffffffffffffffffffffff161415156112d657600080fd5b806002015443101515156112e957600080fd5b60ff81600201540143111515156112ff57600080fd5b6007600083815260200190815260200160002060009054906101000a900460ff1615151561132c57600080fd5b6113358261093c565b60016007600084815260200190815260200160002060006101000a81548160ff02191690831515021790555060006113ae600560028060200260405190810160405280929190826002801561139f576020028201915b81548152602001906001019080831161138b575b50505050508360010154611694565b90506000811115611401573373ffffffffffffffffffffffffffffffffffffffff166108fc829081150290604051600060405180830381858888f193505050501580156113ff573d6000803e3d6000fd5b505b7facaa9afc806fc667c9d3d06a8ecc938f0534a43b48ec47f91ac101034ff56107836005600060028110151561143357fe5b01546005600160028110151561144557fe5b0154846040518085815260200184815260200183815260200182815260200194505050505060405180910390a1505050565b60045481565b6114873334610cdb565b61148f611099565b565b60076020528060005260406000206000915054906101000a900460ff1681565b601e816002811015156114c057fe5b016000915090505481565b6114d3611723565b6003600083815260200190815260200160002060028060200260405190810160405280929190826002801561151d576020028201915b815481526020019060010190808311611509575b50505050509050919050565b8073ffffffffffffffffffffffffffffffffffffffff163373ffffffffffffffffffffffffffffffffffffffff1614806115af57506000809054906101000a900473ffffffffffffffffffffffffffffffffffffffff1673ffffffffffffffffffffffffffffffffffffffff163373ffffffffffffffffffffffffffffffffffffffff16145b15156115ba57600080fd5b6115c3816107bc565b6115cb611099565b50565b6020816002811015156115dd57fe5b600202016000915090508060000154905081565b600080824333600454604051602001808481526020018373ffffffffffffffffffffffffffffffffffffffff1673ffffffffffffffffffffffffffffffffffffffff166c010000000000000000000000000281526014018281526020019350505050604051602081830303815290604052805190602001206001900481151561167657fe5b06905060046000815480929190600101919050555080915050919050565b6000808360006002811015156116a657fe5b60200201511480156116cb575060018360016002811015156116c457fe5b6020020151145b156116db578160050290506116e0565b600090505b92915050565b8260028101928215611712579182015b828111156117115782548255916001019190600101906116f6565b5b50905061171f9190611745565b5090565b6040805190810160405280600290602082028038833980820191505090505090565b61176791905b8082111561176357600081600090555060010161174b565b5090565b9056fea165627a7a72305820e667c31a66153f10951ec76a637c29a9548f564b7784634978dfce3bb864930e0029",
  "source": "pragma solidity ^0.5.0;\n\ncontract SlotMachine {\n\n  struct Reel {\n    uint probDenominator;\n    //  THESE CUTOFFS CORRESPOND TO THE PROBABILITIES OF THE EVENTS\n    //  WHEN WE GENERATE A RANDOM NUMBER IN [0, probDenominator - 1]\n    uint[] probCutoffs;\n  }\n\n  struct Bet {\n    address user;\n    uint amount;\n    uint block;\n  }\n\n  struct HousePercentage {\n    uint numerator;\n    uint denominator;\n  }\n\n  address payable public owner;\n  uint public counter = 0;\n  mapping(uint => Bet) public bets;\n  mapping(uint => uint[numReel]) public outcomes;\n  uint public nonce = 0;\n  uint[numReel] thisOutcome;\n  mapping(uint => bool) public spun;\n\n  uint constant maxHouseMembers = 20;\n  mapping(address => HousePercentage) public housePercentages;\n  mapping(address => uint) public houseAccounts;\n  address payable [maxHouseMembers] public houseMemberArray;\n\n  uint constant minPercentageIncrease = 20;\n\n  // 0 for debugging, 3 for production\n  uint constant blockDelay = 0;\n\n  // ******************************\n  // DEFINE THE MACHINE\n\n  uint8 constant numReel = 2;\n  uint[numReel] public numSymbols;\n  Reel[numReel] public machine;\n  uint public maxBetBalanceDivisor = 10;\n  uint public minBet = 1;\n\n  function paytable(uint[numReel] memory outcome, uint betAmount) internal pure returns (uint) {\n    if (outcome[0] == 0 && outcome[1] == 1) {\n      return 5 * betAmount;\n    }\n    else {\n      return 0;\n    }\n  }\n\n  function makeMachine() internal {\n    machine[0].probDenominator = 100;\n    machine[0].probCutoffs = [49,97,98,99];\n\n    machine[1].probDenominator = 100;\n    machine[1].probCutoffs = [1,2,50,99];\n\n    // check that last cutoff is the max random number\n\n    for (uint8 i = 0; i < numReel; i++) {\n      require(machine[i].probCutoffs[machine[i].probCutoffs.length - 1] ==\n              machine[i].probDenominator - 1);\n    }\n\n    // record the number of symbols for each reel\n    for (uint8 i = 0; i < numReel; i++) {\n      numSymbols[i] = machine[i].probCutoffs.length;\n    }\n  }\n\n  event Spin(uint id, uint real0, uint real1, uint award);\n\n  // ***************************************\n\n  event BetPlaced(address user, uint amount, uint block, uint counter);\n\n\n  constructor () public payable {\n    owner = msg.sender;\n    makeMachine();\n  }\n\n  function wager () payable public {\n    require(msg.value >= minBet);\n    require(msg.value <= address(this).balance/maxBetBalanceDivisor);\n    bets[counter] = Bet(msg.sender, msg.value, block.number + blockDelay);\n    emit BetPlaced(msg.sender, msg.value, block.number + 3, counter);\n    counter++;\n  }\n\n  function random(uint modulus) internal returns (uint) {\n    uint randomnumber = uint(keccak256(abi.encodePacked(block.number, msg.sender, nonce))) % modulus;\n    nonce++;\n    return randomnumber;\n  }\n\n  function outcomeDetermine(uint id) public {\n    uint thisRandom;\n\n    for (uint i = 0; i < numReel; i++) {\n      thisRandom = random(machine[i].probDenominator);\n      // CONVERT RANDOM NUMBER TO EVENT\n      for (uint j = 0; j < machine[i].probCutoffs.length; j++){\n        if (thisRandom <= machine[i].probCutoffs[j]) {\n          thisOutcome[i] = j;\n          break;\n        }\n      }\n    }\n    outcomes[id] = thisOutcome;\n  }\n\n  function spin (uint id) public {\n      Bet storage bet = bets[id];\n      require(msg.sender == bet.user);\n      require(block.number >= bet.block);\n      require(block.number <= bet.block + 255); // make this into a refund\n      require(!spun[id]);\n\n      outcomeDetermine(id);\n\n      spun[id] = true;\n      uint award = paytable(thisOutcome, bet.amount);\n      if (award > 0) {\n        msg.sender.transfer(award);\n      }\n\n      // CUSTOMIZE THIS EVENT FOR THE MACHINE STRUCTURE\n      emit Spin(id, thisOutcome[0], thisOutcome[1], award);\n  }\n\n  // GETTERS FOR DEBUGGING\n  function outcomeGet(uint id) public view returns (uint[numReel] memory) {\n    return outcomes[id];\n  }\n\n  function addMember(address payable addressToAdd, uint initialFund) public {\n\n    uint currentMin = houseAccounts[houseMemberArray[0]];\n    uint currentMinIndex = 0;\n    address payable thisAddress;\n\n    for (uint i = 0; i < maxHouseMembers; i++){\n      thisAddress = houseMemberArray[i];\n      if (houseAccounts[thisAddress] == 0) {\n          houseRemoveMember(thisAddress);\n          houseMemberArray[i] = addressToAdd;\n          houseAccounts[thisAddress] = initialFund;\n          calculateHousePercentages();\n          return;\n      }\n      else {\n        if (houseAccounts[houseMemberArray[i]] < currentMin) {\n          currentMin = houseAccounts[houseMemberArray[i]];\n          currentMinIndex = i;\n        }\n      }\n    }\n    if ( initialFund > currentMin + ((currentMin * minPercentageIncrease)/100) ) {\n      thisAddress = houseMemberArray[currentMinIndex];\n      houseRemoveMember(thisAddress);\n      houseMemberArray[currentMinIndex] = addressToAdd;\n      houseAccounts[thisAddress] = initialFund;\n      calculateHousePercentages();\n      return;\n    }\n    require(0 == 1);\n  }\n\n  // make co-owners\n  function fund () public payable {\n    addMember(msg.sender, msg.value);\n    calculateHousePercentages();\n  }\n\n  // RECALULATE ALL OWNERSHIP PERCENTAGES\n  function calculateHousePercentages() public {\n    for (uint i = 0; i < maxHouseMembers; i++) {\n      housePercentages[houseMemberArray[i]].numerator = houseAccounts[houseMemberArray[i]];\n      housePercentages[houseMemberArray[i]].denominator = address(this).balance;\n    }\n  }\n\n  function houseRemoveMember(address payable houseMember) public {\n    if (houseAccounts[houseMember] > 0) {\n      houseMember.transfer(houseAccounts[houseMember]);\n      houseAccounts[houseMember] = 0;\n    }\n  }\n\n  // WITHDRAW\n  function houseWithdraw (address payable houseMember) public {\n    require(msg.sender == houseMember || msg.sender == owner);\n    houseRemoveMember(houseMember);\n    calculateHousePercentages();\n  }\n\n  function getBalance () view public returns (uint) {\n    return address(this).balance;\n  }\n\n  function kill () public {\n    require(msg.sender == owner);\n    selfdestruct(owner);\n  }\n}\n",
  "sourcePath": "/Users/mettinger/github/casino/contracts/slotMachine.sol",
  "compiler": {
    "name": "solc",
    "version": "0.5.0+commit.1d4f565a.Emscripten.clang"
  },
  "schemaVersion": "3.0.1",
  "updatedAt": "2019-01-17T13:27:33.511Z",
  "devdoc": {
    "methods": {}
  },
  "userdoc": {
    "methods": {}
  }
}