{
  "contractName": "SlotMachine",
  "abi": [
    {
      "constant": true,
      "inputs": [
        {
          "name": "",
          "type": "uint256"
        }
      ],
      "name": "bets",
      "outputs": [
        {
          "name": "user",
          "type": "address"
        },
        {
          "name": "amount",
          "type": "uint256"
        },
        {
          "name": "block",
          "type": "uint256"
        }
      ],
      "payable": false,
      "stateMutability": "view",
      "type": "function"
    },
    {
      "constant": true,
      "inputs": [],
      "name": "counter",
      "outputs": [
        {
          "name": "",
          "type": "uint256"
        }
      ],
      "payable": false,
      "stateMutability": "view",
      "type": "function"
    },
    {
      "constant": true,
      "inputs": [
        {
          "name": "",
          "type": "address"
        }
      ],
      "name": "houseAccounts",
      "outputs": [
        {
          "name": "",
          "type": "uint256"
        }
      ],
      "payable": false,
      "stateMutability": "view",
      "type": "function"
    },
    {
      "constant": true,
      "inputs": [
        {
          "name": "",
          "type": "address"
        }
      ],
      "name": "housePercentages",
      "outputs": [
        {
          "name": "numerator",
          "type": "uint256"
        },
        {
          "name": "denominator",
          "type": "uint256"
        }
      ],
      "payable": false,
      "stateMutability": "view",
      "type": "function"
    },
    {
      "constant": true,
      "inputs": [],
      "name": "owner",
      "outputs": [
        {
          "name": "",
          "type": "address"
        }
      ],
      "payable": false,
      "stateMutability": "view",
      "type": "function"
    },
    {
      "constant": true,
      "inputs": [],
      "name": "minBet",
      "outputs": [
        {
          "name": "",
          "type": "uint256"
        }
      ],
      "payable": false,
      "stateMutability": "view",
      "type": "function"
    },
    {
      "constant": true,
      "inputs": [
        {
          "name": "",
          "type": "uint256"
        },
        {
          "name": "",
          "type": "uint256"
        }
      ],
      "name": "outcomes",
      "outputs": [
        {
          "name": "",
          "type": "uint256"
        }
      ],
      "payable": false,
      "stateMutability": "view",
      "type": "function"
    },
    {
      "constant": true,
      "inputs": [
        {
          "name": "",
          "type": "uint256"
        }
      ],
      "name": "houseMemberArray",
      "outputs": [
        {
          "name": "",
          "type": "address"
        }
      ],
      "payable": false,
      "stateMutability": "view",
      "type": "function"
    },
    {
      "constant": true,
      "inputs": [
        {
          "name": "",
          "type": "uint256"
        }
      ],
      "name": "spun",
      "outputs": [
        {
          "name": "",
          "type": "bool"
        }
      ],
      "payable": false,
      "stateMutability": "view",
      "type": "function"
    },
    {
      "constant": true,
      "inputs": [],
      "name": "nonceForRandom",
      "outputs": [
        {
          "name": "",
          "type": "uint256"
        }
      ],
      "payable": false,
      "stateMutability": "view",
      "type": "function"
    },
    {
      "constant": true,
      "inputs": [
        {
          "name": "",
          "type": "uint256"
        }
      ],
      "name": "numSymbols",
      "outputs": [
        {
          "name": "",
          "type": "uint256"
        }
      ],
      "payable": false,
      "stateMutability": "view",
      "type": "function"
    },
    {
      "constant": true,
      "inputs": [
        {
          "name": "",
          "type": "uint256"
        }
      ],
      "name": "machine",
      "outputs": [
        {
          "name": "probDenominator",
          "type": "uint256"
        }
      ],
      "payable": false,
      "stateMutability": "view",
      "type": "function"
    },
    {
      "constant": true,
      "inputs": [],
      "name": "maxBetAsBalancePercentage",
      "outputs": [
        {
          "name": "",
          "type": "uint256"
        }
      ],
      "payable": false,
      "stateMutability": "view",
      "type": "function"
    },
    {
      "inputs": [],
      "payable": true,
      "stateMutability": "payable",
      "type": "constructor"
    },
    {
      "anonymous": false,
      "inputs": [
        {
          "indexed": false,
          "name": "id",
          "type": "uint256"
        },
        {
          "indexed": false,
          "name": "real0",
          "type": "uint256"
        },
        {
          "indexed": false,
          "name": "real1",
          "type": "uint256"
        },
        {
          "indexed": false,
          "name": "award",
          "type": "uint256"
        }
      ],
      "name": "Spin",
      "type": "event"
    },
    {
      "anonymous": false,
      "inputs": [
        {
          "indexed": false,
          "name": "user",
          "type": "address"
        },
        {
          "indexed": false,
          "name": "amount",
          "type": "uint256"
        },
        {
          "indexed": false,
          "name": "block",
          "type": "uint256"
        },
        {
          "indexed": false,
          "name": "counter",
          "type": "uint256"
        }
      ],
      "name": "BetPlaced",
      "type": "event"
    },
    {
      "constant": false,
      "inputs": [],
      "name": "wager",
      "outputs": [],
      "payable": true,
      "stateMutability": "payable",
      "type": "function"
    },
    {
      "constant": false,
      "inputs": [
        {
          "name": "id",
          "type": "uint256"
        }
      ],
      "name": "outcomeDetermine",
      "outputs": [],
      "payable": false,
      "stateMutability": "nonpayable",
      "type": "function"
    },
    {
      "constant": false,
      "inputs": [
        {
          "name": "id",
          "type": "uint256"
        }
      ],
      "name": "spin",
      "outputs": [],
      "payable": false,
      "stateMutability": "nonpayable",
      "type": "function"
    },
    {
      "constant": true,
      "inputs": [
        {
          "name": "id",
          "type": "uint256"
        }
      ],
      "name": "outcomeGet",
      "outputs": [
        {
          "name": "",
          "type": "uint256[2]"
        }
      ],
      "payable": false,
      "stateMutability": "view",
      "type": "function"
    },
    {
      "constant": false,
      "inputs": [],
      "name": "fund",
      "outputs": [],
      "payable": true,
      "stateMutability": "payable",
      "type": "function"
    },
    {
      "constant": false,
      "inputs": [],
      "name": "calculateHousePercentages",
      "outputs": [],
      "payable": false,
      "stateMutability": "nonpayable",
      "type": "function"
    },
    {
      "constant": false,
      "inputs": [
        {
          "name": "houseMember",
          "type": "address"
        }
      ],
      "name": "houseWithdraw",
      "outputs": [],
      "payable": false,
      "stateMutability": "nonpayable",
      "type": "function"
    },
    {
      "constant": true,
      "inputs": [],
      "name": "getBalance",
      "outputs": [
        {
          "name": "",
          "type": "uint256"
        }
      ],
      "payable": false,
      "stateMutability": "view",
      "type": "function"
    },
    {
      "constant": false,
      "inputs": [],
      "name": "kill",
      "outputs": [],
      "payable": false,
      "stateMutability": "nonpayable",
      "type": "function"
    }
  ],
  "bytecode": "0x60806040526001600055600a6001556000601e556000601f5533600260006101000a81548173ffffffffffffffffffffffffffffffffffffffff021916908373ffffffffffffffffffffffffffffffffffffffff1602179055506200007262000078640100000000026401000000009004565b620002e9565b6064602260006002811015156200008b57fe5b6002020160000181905550608060405190810160405280603160ff168152602001606160ff168152602001606260ff168152602001606360ff1681525060226000600281101515620000d957fe5b60020201600101906004620000f09291906200026a565b506064602260016002811015156200010457fe5b6002020160000181905550608060405190810160405280600160ff168152602001600260ff168152602001603260ff168152602001606360ff16815250602260016002811015156200015257fe5b60020201600101906004620001699291906200026a565b5060008090505b600260ff168160ff1610156200020c57600160228260ff166002811015156200019557fe5b60020201600001540360228260ff16600281101515620001b157fe5b60020201600101600160228460ff16600281101515620001cd57fe5b600202016001018054905003815481101515620001e657fe5b9060005260206000200154141515620001fe57600080fd5b808060010191505062000170565b5060008090505b600260ff168160ff161015620002675760228160ff166002811015156200023657fe5b600202016001018054905060208260ff166002811015156200025457fe5b0181905550808060010191505062000213565b50565b828054828255906000526020600020908101928215620002ae579160200282015b82811115620002ad578251829060ff169055916020019190600101906200028b565b5b509050620002bd9190620002c1565b5090565b620002e691905b80821115620002e2576000816000905550600101620002c8565b5090565b90565b61172e80620002f96000396000f3fe608060405260043610610128576000357c0100000000000000000000000000000000000000000000000000000000900463ffffffff16806312065fe01461012d57806322af00fa1461015857806340d36d0d146101e157806341c0e1b51461021c57806361bc221a14610233578063667d5d221461025e5780637bef46f5146102685780638c7fbb63146102cd5780638da5cb5b146103395780639619367d14610390578063962254a4146103bb578063988a2312146104145780639e30f05d1461042b578063a5b6ea8f146104a6578063b60d4288146104e1578063b90da3ad146104eb578063c947f0611461053e578063d692857514610569578063e64d567b146105b8578063e9d3ea6b1461062f578063f797a81914610680578063fa60c0bc146106cf575b600080fd5b34801561013957600080fd5b506101426106fa565b6040518082815260200191505060405180910390f35b34801561016457600080fd5b506101916004803603602081101561017b57600080fd5b8101908080359060200190929190505050610719565b604051808473ffffffffffffffffffffffffffffffffffffffff1673ffffffffffffffffffffffffffffffffffffffff168152602001838152602001828152602001935050505060405180910390f35b3480156101ed57600080fd5b5061021a6004803603602081101561020457600080fd5b8101908080359060200190929190505050610763565b005b34801561022857600080fd5b50610231610853565b005b34801561023f57600080fd5b50610248610940565b6040518082815260200191505060405180910390f35b610266610946565b005b34801561027457600080fd5b506102b76004803603602081101561028b57600080fd5b81019080803573ffffffffffffffffffffffffffffffffffffffff169060200190929190505050610ac6565b6040518082815260200191505060405180910390f35b3480156102d957600080fd5b5061031c600480360360208110156102f057600080fd5b81019080803573ffffffffffffffffffffffffffffffffffffffff169060200190929190505050610ade565b604051808381526020018281526020019250505060405180910390f35b34801561034557600080fd5b5061034e610b02565b604051808273ffffffffffffffffffffffffffffffffffffffff1673ffffffffffffffffffffffffffffffffffffffff16815260200191505060405180910390f35b34801561039c57600080fd5b506103a5610b28565b6040518082815260200191505060405180910390f35b3480156103c757600080fd5b506103fe600480360360408110156103de57600080fd5b810190808035906020019092919080359060200190929190505050610b2e565b6040518082815260200191505060405180910390f35b34801561042057600080fd5b50610429610b55565b005b34801561043757600080fd5b506104646004803603602081101561044e57600080fd5b8101908080359060200190929190505050610ce8565b604051808273ffffffffffffffffffffffffffffffffffffffff1673ffffffffffffffffffffffffffffffffffffffff16815260200191505060405180910390f35b3480156104b257600080fd5b506104df600480360360208110156104c957600080fd5b8101908080359060200190929190505050610d1d565b005b6104e9610f33565b005b3480156104f757600080fd5b506105246004803603602081101561050e57600080fd5b8101908080359060200190929190505050610f47565b604051808215151515815260200191505060405180910390f35b34801561054a57600080fd5b50610553610f67565b6040518082815260200191505060405180910390f35b34801561057557600080fd5b506105a26004803603602081101561058c57600080fd5b8101908080359060200190929190505050610f6d565b6040518082815260200191505060405180910390f35b3480156105c457600080fd5b506105f1600480360360208110156105db57600080fd5b8101908080359060200190929190505050610f87565b6040518082600260200280838360005b8381101561061c578082015181840152602081019050610601565b5050505090500191505060405180910390f35b34801561063b57600080fd5b5061067e6004803603602081101561065257600080fd5b81019080803573ffffffffffffffffffffffffffffffffffffffff169060200190929190505050610fe5565b005b34801561068c57600080fd5b506106b9600480360360208110156106a357600080fd5b810190808035906020019092919050505061108b565b6040518082815260200191505060405180910390f35b3480156106db57600080fd5b506106e46110ae565b6040518082815260200191505060405180910390f35b60003073ffffffffffffffffffffffffffffffffffffffff1631905090565b60036020528060005260406000206000915090508060000160009054906101000a900473ffffffffffffffffffffffffffffffffffffffff16908060010154908060020154905083565b600080600090505b600260ff1681101561082a5761079660228260028110151561078957fe5b60020201600001546110b4565b915060008090505b6022826002811015156107ad57fe5b600202016001018054905081101561081c576022826002811015156107ce57fe5b60020201600101818154811015156107e257fe5b90600052602060002001548311151561080f578060058360028110151561080557fe5b018190555061081c565b808060010191505061079e565b50808060010191505061076b565b5060056004600084815260200190815260200160002090600261084e92919061167e565b505050565b600260009054906101000a900473ffffffffffffffffffffffffffffffffffffffff1673ffffffffffffffffffffffffffffffffffffffff163373ffffffffffffffffffffffffffffffffffffffff161415156108af57600080fd5b60008090505b6014811015610904576108f7600a826014811015156108d057fe5b0160009054906101000a900473ffffffffffffffffffffffffffffffffffffffff16611157565b80806001019150506108b5565b50600260009054906101000a900473ffffffffffffffffffffffffffffffffffffffff1673ffffffffffffffffffffffffffffffffffffffff16ff5b601e5481565b600054341015151561095757600080fd5b6001543073ffffffffffffffffffffffffffffffffffffffff163181151561097b57fe5b04341115151561098a57600080fd5b6060604051908101604052803373ffffffffffffffffffffffffffffffffffffffff1681526020013481526020016000430181525060036000601e54815260200190815260200160002060008201518160000160006101000a81548173ffffffffffffffffffffffffffffffffffffffff021916908373ffffffffffffffffffffffffffffffffffffffff16021790555060208201518160010155604082015181600201559050507f7363e6581df4db69463222156be4a09656528b9f1302890fa4c0b60819b69fc6333460034301601e54604051808573ffffffffffffffffffffffffffffffffffffffff1673ffffffffffffffffffffffffffffffffffffffff16815260200184815260200183815260200182815260200194505050505060405180910390a1601e60008154809291906001019190505550565b60096020528060005260406000206000915090505481565b60086020528060005260406000206000915090508060000154908060010154905082565b600260009054906101000a900473ffffffffffffffffffffffffffffffffffffffff1681565b60005481565b600460205281600052604060002081600281101515610b4957fe5b01600091509150505481565b60008090505b6014811015610ce55760096000600a83601481101515610b7757fe5b0160009054906101000a900473ffffffffffffffffffffffffffffffffffffffff1673ffffffffffffffffffffffffffffffffffffffff1673ffffffffffffffffffffffffffffffffffffffff1681526020019081526020016000205460086000600a84601481101515610be757fe5b0160009054906101000a900473ffffffffffffffffffffffffffffffffffffffff1673ffffffffffffffffffffffffffffffffffffffff1673ffffffffffffffffffffffffffffffffffffffff168152602001908152602001600020600001819055503073ffffffffffffffffffffffffffffffffffffffff163160086000600a84601481101515610c7557fe5b0160009054906101000a900473ffffffffffffffffffffffffffffffffffffffff1673ffffffffffffffffffffffffffffffffffffffff1673ffffffffffffffffffffffffffffffffffffffff168152602001908152602001600020600101819055508080600101915050610b5b565b50565b600a81601481101515610cf757fe5b016000915054906101000a900473ffffffffffffffffffffffffffffffffffffffff1681565b60006003600083815260200190815260200160002090508060000160009054906101000a900473ffffffffffffffffffffffffffffffffffffffff1673ffffffffffffffffffffffffffffffffffffffff163373ffffffffffffffffffffffffffffffffffffffff16141515610d9257600080fd5b80600201544310151515610da557600080fd5b60ff8160020154014311151515610dbb57600080fd5b6007600083815260200190815260200160002060009054906101000a900460ff16151515610de857600080fd5b610df182610763565b60016007600084815260200190815260200160002060006101000a81548160ff0219169083151502179055506000610e6a6005600280602002604051908101604052809291908260028015610e5b576020028201915b815481526020019060010190808311610e47575b5050505050836001015461126e565b90506000811115610ebd573373ffffffffffffffffffffffffffffffffffffffff166108fc829081150290604051600060405180830381858888f19350505050158015610ebb573d6000803e3d6000fd5b505b7facaa9afc806fc667c9d3d06a8ecc938f0534a43b48ec47f91ac101034ff561078360056000600281101515610eef57fe5b015460056001600281101515610f0157fe5b0154846040518085815260200184815260200183815260200182815260200194505050505060405180910390a1505050565b610f3d33346112c0565b610f45610b55565b565b60076020528060005260406000206000915054906101000a900460ff1681565b601f5481565b602081600281101515610f7c57fe5b016000915090505481565b610f8f6116bb565b60046000838152602001908152602001600020600280602002604051908101604052809291908260028015610fd9576020028201915b815481526020019060010190808311610fc5575b50505050509050919050565b8073ffffffffffffffffffffffffffffffffffffffff163373ffffffffffffffffffffffffffffffffffffffff16148061106c5750600260009054906101000a900473ffffffffffffffffffffffffffffffffffffffff1673ffffffffffffffffffffffffffffffffffffffff163373ffffffffffffffffffffffffffffffffffffffff16145b151561107757600080fd5b61108081611157565b611088610b55565b50565b60228160028110151561109a57fe5b600202016000915090508060000154905081565b60015481565b600080824333601f54604051602001808481526020018373ffffffffffffffffffffffffffffffffffffffff1673ffffffffffffffffffffffffffffffffffffffff166c010000000000000000000000000281526014018281526020019350505050604051602081830303815290604052805190602001206001900481151561113957fe5b069050601f6000815480929190600101919050555080915050919050565b6000600960008373ffffffffffffffffffffffffffffffffffffffff1673ffffffffffffffffffffffffffffffffffffffff16815260200190815260200160002054111561126b578073ffffffffffffffffffffffffffffffffffffffff166108fc600960008473ffffffffffffffffffffffffffffffffffffffff1673ffffffffffffffffffffffffffffffffffffffff168152602001908152602001600020549081150290604051600060405180830381858888f19350505050158015611224573d6000803e3d6000fd5b506000600960008373ffffffffffffffffffffffffffffffffffffffff1673ffffffffffffffffffffffffffffffffffffffff168152602001908152602001600020819055505b50565b60008083600060028110151561128057fe5b60200201511480156112a55750600183600160028110151561129e57fe5b6020020151145b156112b5578160050290506112ba565b600090505b92915050565b600060096000600a60006014811015156112d657fe5b0160009054906101000a900473ffffffffffffffffffffffffffffffffffffffff1673ffffffffffffffffffffffffffffffffffffffff1673ffffffffffffffffffffffffffffffffffffffff1681526020019081526020016000205490506000809050600080600090505b601481101561156d57600a8160148110151561135a57fe5b0160009054906101000a900473ffffffffffffffffffffffffffffffffffffffff1691506000600960008473ffffffffffffffffffffffffffffffffffffffff1673ffffffffffffffffffffffffffffffffffffffff168152602001908152602001600020541415611473576113cf82611157565b85600a826014811015156113df57fe5b0160006101000a81548173ffffffffffffffffffffffffffffffffffffffff021916908373ffffffffffffffffffffffffffffffffffffffff16021790555084600960008473ffffffffffffffffffffffffffffffffffffffff1673ffffffffffffffffffffffffffffffffffffffff1681526020019081526020016000208190555061146a610b55565b5050505061167a565b8360096000600a8460148110151561148757fe5b0160009054906101000a900473ffffffffffffffffffffffffffffffffffffffff1673ffffffffffffffffffffffffffffffffffffffff1673ffffffffffffffffffffffffffffffffffffffff1681526020019081526020016000205410156115605760096000600a836014811015156114fd57fe5b0160009054906101000a900473ffffffffffffffffffffffffffffffffffffffff1673ffffffffffffffffffffffffffffffffffffffff1673ffffffffffffffffffffffffffffffffffffffff1681526020019081526020016000205493508092505b8080600101915050611342565b5060646014840281151561157d57fe5b04830184111561166657600a8260148110151561159657fe5b0160009054906101000a900473ffffffffffffffffffffffffffffffffffffffff1690506115c381611157565b84600a836014811015156115d357fe5b0160006101000a81548173ffffffffffffffffffffffffffffffffffffffff021916908373ffffffffffffffffffffffffffffffffffffffff16021790555083600960008373ffffffffffffffffffffffffffffffffffffffff1673ffffffffffffffffffffffffffffffffffffffff1681526020019081526020016000208190555061165e610b55565b50505061167a565b6001600014151561167657600080fd5b5050505b5050565b82600281019282156116aa579182015b828111156116a957825482559160010191906001019061168e565b5b5090506116b791906116dd565b5090565b6040805190810160405280600290602082028038833980820191505090505090565b6116ff91905b808211156116fb5760008160009055506001016116e3565b5090565b9056fea165627a7a7230582058b5767c88d1b9a0ccd16a5287a944adfe76da95c1d907876cac71d5c70421ae0029",
  "source": "pragma solidity ^0.5.0;\n\ncontract SlotMachine {\n\n  // STRUCTURES\n  struct Reel {\n    uint probDenominator;\n    //  THESE CUTOFFS CORRESPOND TO THE PROBABILITIES OF THE EVENTS\n    //  WHEN WE GENERATE A RANDOM NUMBER IN [0, probDenominator - 1]\n    uint[] probCutoffs;\n  }\n\n  struct Bet {\n    address user;\n    uint amount;\n    uint block;\n  }\n\n  struct HousePercentage {\n    uint numerator;\n    uint denominator;\n  }\n\n  // PARAMETERS\n  uint constant maxHouseMembers = 20; // max number of investors/owners\n  uint constant minPercentageIncrease = 20; // min overage for kicking someone on funding\n  uint constant blockDelay = 0; // 0 for debugging, 3 for production\n  uint public minBet = 1;\n  uint public maxBetAsBalancePercentage = 10;  // percentage of house max bet\n\n\n  address payable public owner;\n  mapping(uint => Bet) public bets;\n  mapping(uint => uint[numReel]) public outcomes;\n  uint[numReel] thisOutcome;\n  mapping(uint => bool) public spun;\n  mapping(address => HousePercentage) public housePercentages;\n  mapping(address => uint) public houseAccounts;\n  address payable [maxHouseMembers] public houseMemberArray;\n  uint public counter = 0;\n  uint public nonceForRandom = 0;\n\n  // ******************************\n  // DEFINE THE MACHINE\n\n  // machine specific constants\n  uint8 constant numReel = 2;\n\n  uint[numReel] public numSymbols;\n  Reel[numReel] public machine;\n\n  // CALCULATE THE PAYOUT\n  function paytable(uint[numReel] memory outcome, uint betAmount) internal pure returns (uint) {\n    if (outcome[0] == 0 && outcome[1] == 1) {\n      return 5 * betAmount;\n    }\n    else {\n      return 0;\n    }\n  }\n\n  // DEFINE THE PROBABILITIES FOR THE REEL SYMBOLS\n  function makeMachine() internal {\n    machine[0].probDenominator = 100;\n    machine[0].probCutoffs = [49,97,98,99];\n\n    machine[1].probDenominator = 100;\n    machine[1].probCutoffs = [1,2,50,99];\n\n    // check that last cutoff is the max random number\n    for (uint8 i = 0; i < numReel; i++) {\n      require(machine[i].probCutoffs[machine[i].probCutoffs.length - 1] ==\n              machine[i].probDenominator - 1);\n    }\n\n    // record the number of symbols for each reel\n    for (uint8 i = 0; i < numReel; i++) {\n      numSymbols[i] = machine[i].probCutoffs.length;\n    }\n  }\n\n  event Spin(uint id, uint real0, uint real1, uint award); // specific to machine!\n  // ***************************************\n\n  event BetPlaced(address user, uint amount, uint block, uint counter);\n\n  constructor () public payable {\n    owner = msg.sender;\n    makeMachine();\n  }\n\n  function wager () payable public {\n    require(msg.value >= minBet);\n    require(msg.value <= address(this).balance/maxBetAsBalancePercentage);\n    bets[counter] = Bet(msg.sender, msg.value, block.number + blockDelay);\n    emit BetPlaced(msg.sender, msg.value, block.number + 3, counter);\n    counter++;\n  }\n\n  function random(uint modulus) internal returns (uint) {\n    uint randomnumber = uint(keccak256(abi.encodePacked(block.number, msg.sender, nonceForRandom))) % modulus;\n    nonceForRandom++;\n    return randomnumber;\n  }\n\n  function outcomeDetermine(uint id) public {\n    uint thisRandom;\n\n    for (uint i = 0; i < numReel; i++) {\n      thisRandom = random(machine[i].probDenominator);\n      // CONVERT RANDOM NUMBER TO EVENT\n      for (uint j = 0; j < machine[i].probCutoffs.length; j++){\n        if (thisRandom <= machine[i].probCutoffs[j]) {\n          thisOutcome[i] = j;\n          break;\n        }\n      }\n    }\n    outcomes[id] = thisOutcome;\n  }\n\n  function spin (uint id) public {\n      Bet storage bet = bets[id];\n      require(msg.sender == bet.user);\n      require(block.number >= bet.block);\n      require(block.number <= bet.block + 255); // make this into a refund\n      require(!spun[id]);\n\n      outcomeDetermine(id);\n\n      spun[id] = true;\n      uint award = paytable(thisOutcome, bet.amount);\n      if (award > 0) {\n        msg.sender.transfer(award);\n      }\n\n      // CUSTOMIZE THIS EVENT FOR THE MACHINE STRUCTURE\n      emit Spin(id, thisOutcome[0], thisOutcome[1], award);\n  }\n\n  // GETTERS FOR DEBUGGING\n  function outcomeGet(uint id) public view returns (uint[numReel] memory) {\n    return outcomes[id];\n  }\n\n  // TRY TO ADD A NEW MEMBER (OWNER/INVESTOR)\n  function addMember(address payable addressToAdd, uint initialFund) private {\n\n    uint currentMin = houseAccounts[houseMemberArray[0]];\n    uint currentMinIndex = 0;\n    address payable thisAddress;\n\n    for (uint i = 0; i < maxHouseMembers; i++){\n      thisAddress = houseMemberArray[i];\n      if (houseAccounts[thisAddress] == 0) {\n          houseRemoveMember(thisAddress);\n          houseMemberArray[i] = addressToAdd;\n          houseAccounts[thisAddress] = initialFund;\n          calculateHousePercentages();\n          return;\n      }\n      else {\n        if (houseAccounts[houseMemberArray[i]] < currentMin) {\n          currentMin = houseAccounts[houseMemberArray[i]];\n          currentMinIndex = i;\n        }\n      }\n    }\n    if ( initialFund > currentMin + ((currentMin * minPercentageIncrease)/100) ) {\n      thisAddress = houseMemberArray[currentMinIndex];\n      houseRemoveMember(thisAddress);\n      houseMemberArray[currentMinIndex] = addressToAdd;\n      houseAccounts[thisAddress] = initialFund;\n      calculateHousePercentages();\n      return;\n    }\n    require(0 == 1);\n  }\n\n  // FUND THE CASINO\n  function fund () public payable {\n    addMember(msg.sender, msg.value);\n    calculateHousePercentages();\n  }\n\n  // RECALULATE ALL OWNERSHIP PERCENTAGES\n  function calculateHousePercentages() public {\n    for (uint i = 0; i < maxHouseMembers; i++) {\n      housePercentages[houseMemberArray[i]].numerator = houseAccounts[houseMemberArray[i]];\n      housePercentages[houseMemberArray[i]].denominator = address(this).balance;\n    }\n  }\n\n  // REMOVE A MEMBER (OWNER/INVESTOR)\n  function houseRemoveMember(address payable houseMember) private {\n    if (houseAccounts[houseMember] > 0) {\n      houseMember.transfer(houseAccounts[houseMember]);\n      houseAccounts[houseMember] = 0;\n    }\n  }\n\n  // WITHDRAW AND REMOVE MEMBER\n  function houseWithdraw (address payable houseMember) public {\n    require(msg.sender == houseMember || msg.sender == owner);\n    houseRemoveMember(houseMember);\n    calculateHousePercentages();\n  }\n\n  function getBalance () view public returns (uint) {\n    return address(this).balance;\n  }\n\n  // TRANSFER ALL FUNDS TO MEMBERS AND DESTROY THE CONTRACT\n  function kill () public {\n    require(msg.sender == owner);\n    for (uint i = 0; i < maxHouseMembers; i++) {\n      houseRemoveMember(houseMemberArray[i]);\n    }\n    selfdestruct(owner);\n  }\n}\n",
  "sourcePath": "/Users/mettinger/github/casino/contracts/slotMachine.sol",
  "compiler": {
    "name": "solc",
    "version": "0.5.0+commit.1d4f565a.Emscripten.clang"
  },
  "schemaVersion": "3.0.1",
  "updatedAt": "2019-01-17T14:07:10.175Z",
  "devdoc": {
    "methods": {}
  },
  "userdoc": {
    "methods": {}
  }
}