{
  "contractName": "SlotMachine",
  "abi": [
    {
      "constant": true,
      "inputs": [
        {
          "name": "",
          "type": "uint256"
        }
      ],
      "name": "bets",
      "outputs": [
        {
          "name": "user",
          "type": "address"
        },
        {
          "name": "amount",
          "type": "uint256"
        },
        {
          "name": "block",
          "type": "uint256"
        }
      ],
      "payable": false,
      "stateMutability": "view",
      "type": "function",
      "signature": "0x22af00fa"
    },
    {
      "constant": true,
      "inputs": [
        {
          "name": "",
          "type": "uint256"
        }
      ],
      "name": "reels",
      "outputs": [
        {
          "name": "probDenominator",
          "type": "uint256"
        }
      ],
      "payable": false,
      "stateMutability": "view",
      "type": "function",
      "signature": "0x2422eb9c"
    },
    {
      "constant": true,
      "inputs": [],
      "name": "maxHouseMembers",
      "outputs": [
        {
          "name": "",
          "type": "uint256"
        }
      ],
      "payable": false,
      "stateMutability": "view",
      "type": "function",
      "signature": "0x2ac485aa"
    },
    {
      "constant": true,
      "inputs": [],
      "name": "minBetDivisor",
      "outputs": [
        {
          "name": "",
          "type": "uint256"
        }
      ],
      "payable": false,
      "stateMutability": "view",
      "type": "function",
      "signature": "0x3a208000"
    },
    {
      "constant": true,
      "inputs": [],
      "name": "counter",
      "outputs": [
        {
          "name": "",
          "type": "uint256"
        }
      ],
      "payable": false,
      "stateMutability": "view",
      "type": "function",
      "signature": "0x61bc221a"
    },
    {
      "constant": true,
      "inputs": [],
      "name": "minPercentageIncrease",
      "outputs": [
        {
          "name": "",
          "type": "uint256"
        }
      ],
      "payable": false,
      "stateMutability": "view",
      "type": "function",
      "signature": "0x72638b9c"
    },
    {
      "constant": true,
      "inputs": [
        {
          "name": "",
          "type": "address"
        }
      ],
      "name": "houseAccounts",
      "outputs": [
        {
          "name": "",
          "type": "uint256"
        }
      ],
      "payable": false,
      "stateMutability": "view",
      "type": "function",
      "signature": "0x7bef46f5"
    },
    {
      "constant": true,
      "inputs": [
        {
          "name": "",
          "type": "address"
        }
      ],
      "name": "housePercentages",
      "outputs": [
        {
          "name": "numerator",
          "type": "uint256"
        },
        {
          "name": "denominator",
          "type": "uint256"
        }
      ],
      "payable": false,
      "stateMutability": "view",
      "type": "function",
      "signature": "0x8c7fbb63"
    },
    {
      "constant": true,
      "inputs": [],
      "name": "owner",
      "outputs": [
        {
          "name": "",
          "type": "address"
        }
      ],
      "payable": false,
      "stateMutability": "view",
      "type": "function",
      "signature": "0x8da5cb5b"
    },
    {
      "constant": true,
      "inputs": [
        {
          "name": "",
          "type": "uint256"
        },
        {
          "name": "",
          "type": "uint256"
        }
      ],
      "name": "outcomes",
      "outputs": [
        {
          "name": "",
          "type": "uint256"
        }
      ],
      "payable": false,
      "stateMutability": "view",
      "type": "function",
      "signature": "0x962254a4"
    },
    {
      "constant": true,
      "inputs": [
        {
          "name": "",
          "type": "uint256"
        }
      ],
      "name": "houseMemberArray",
      "outputs": [
        {
          "name": "",
          "type": "address"
        }
      ],
      "payable": false,
      "stateMutability": "view",
      "type": "function",
      "signature": "0x9e30f05d"
    },
    {
      "constant": true,
      "inputs": [],
      "name": "nonceForRandom",
      "outputs": [
        {
          "name": "",
          "type": "uint256"
        }
      ],
      "payable": false,
      "stateMutability": "view",
      "type": "function",
      "signature": "0xc947f061"
    },
    {
      "constant": true,
      "inputs": [],
      "name": "blockDelay",
      "outputs": [
        {
          "name": "",
          "type": "uint256"
        }
      ],
      "payable": false,
      "stateMutability": "view",
      "type": "function",
      "signature": "0xd98f6088"
    },
    {
      "constant": true,
      "inputs": [],
      "name": "minFundDivisor",
      "outputs": [
        {
          "name": "",
          "type": "uint256"
        }
      ],
      "payable": false,
      "stateMutability": "view",
      "type": "function",
      "signature": "0xe427d026"
    },
    {
      "constant": true,
      "inputs": [
        {
          "name": "",
          "type": "uint256"
        }
      ],
      "name": "alreadyPlayed",
      "outputs": [
        {
          "name": "",
          "type": "bool"
        }
      ],
      "payable": false,
      "stateMutability": "view",
      "type": "function",
      "signature": "0xf977f85e"
    },
    {
      "constant": true,
      "inputs": [],
      "name": "maxBetAsBalancePercentage",
      "outputs": [
        {
          "name": "",
          "type": "uint256"
        }
      ],
      "payable": false,
      "stateMutability": "view",
      "type": "function",
      "signature": "0xfa60c0bc"
    },
    {
      "inputs": [],
      "payable": true,
      "stateMutability": "payable",
      "type": "constructor",
      "signature": "constructor"
    },
    {
      "anonymous": false,
      "inputs": [
        {
          "indexed": false,
          "name": "user",
          "type": "address"
        },
        {
          "indexed": false,
          "name": "amount",
          "type": "uint256"
        },
        {
          "indexed": false,
          "name": "block",
          "type": "uint256"
        },
        {
          "indexed": false,
          "name": "counter",
          "type": "uint256"
        }
      ],
      "name": "BetPlaced",
      "type": "event",
      "signature": "0x7363e6581df4db69463222156be4a09656528b9f1302890fa4c0b60819b69fc6"
    },
    {
      "anonymous": false,
      "inputs": [
        {
          "indexed": false,
          "name": "id",
          "type": "uint256"
        },
        {
          "indexed": false,
          "name": "award",
          "type": "uint256"
        }
      ],
      "name": "Awarded",
      "type": "event",
      "signature": "0xde375d5f6628b29fc599d7672d0d7475a6b065940041879fa73f4e1db7d3ac20"
    },
    {
      "anonymous": false,
      "inputs": [
        {
          "indexed": false,
          "name": "id",
          "type": "uint256"
        },
        {
          "indexed": false,
          "name": "award",
          "type": "uint256"
        }
      ],
      "name": "Spin",
      "type": "event",
      "signature": "0x70907b7a890a9bb1241130b7270a867d408a17aad45906e17b3845a0ab01d621"
    },
    {
      "constant": false,
      "inputs": [
        {
          "name": "id",
          "type": "uint256"
        }
      ],
      "name": "sample",
      "outputs": [],
      "payable": false,
      "stateMutability": "nonpayable",
      "type": "function",
      "signature": "0x10fa1878"
    },
    {
      "constant": false,
      "inputs": [],
      "name": "wager",
      "outputs": [],
      "payable": true,
      "stateMutability": "payable",
      "type": "function",
      "signature": "0x667d5d22"
    },
    {
      "constant": false,
      "inputs": [
        {
          "name": "id",
          "type": "uint256"
        }
      ],
      "name": "play",
      "outputs": [],
      "payable": false,
      "stateMutability": "nonpayable",
      "type": "function",
      "signature": "0x6898f82b"
    },
    {
      "constant": true,
      "inputs": [
        {
          "name": "a",
          "type": "uint256"
        },
        {
          "name": "b",
          "type": "uint256"
        }
      ],
      "name": "gcdCalculate",
      "outputs": [
        {
          "name": "",
          "type": "uint256"
        }
      ],
      "payable": false,
      "stateMutability": "pure",
      "type": "function",
      "signature": "0xd7c6fc27"
    },
    {
      "constant": false,
      "inputs": [],
      "name": "calculateHousePercentages",
      "outputs": [],
      "payable": false,
      "stateMutability": "nonpayable",
      "type": "function",
      "signature": "0x988a2312"
    },
    {
      "constant": false,
      "inputs": [
        {
          "name": "amount",
          "type": "uint256"
        }
      ],
      "name": "setMinFundDivisor",
      "outputs": [],
      "payable": false,
      "stateMutability": "nonpayable",
      "type": "function",
      "signature": "0x65ac7fa6"
    },
    {
      "constant": true,
      "inputs": [
        {
          "name": "amount",
          "type": "uint256"
        }
      ],
      "name": "multipleOf",
      "outputs": [
        {
          "name": "",
          "type": "bool"
        }
      ],
      "payable": false,
      "stateMutability": "view",
      "type": "function",
      "signature": "0xe566f2b2"
    },
    {
      "constant": false,
      "inputs": [],
      "name": "fund",
      "outputs": [],
      "payable": true,
      "stateMutability": "payable",
      "type": "function",
      "signature": "0xb60d4288"
    },
    {
      "constant": false,
      "inputs": [
        {
          "name": "houseMember",
          "type": "address"
        }
      ],
      "name": "houseWithdraw",
      "outputs": [],
      "payable": false,
      "stateMutability": "nonpayable",
      "type": "function",
      "signature": "0xe9d3ea6b"
    },
    {
      "constant": false,
      "inputs": [],
      "name": "kill",
      "outputs": [],
      "payable": false,
      "stateMutability": "nonpayable",
      "type": "function",
      "signature": "0x41c0e1b5"
    },
    {
      "constant": true,
      "inputs": [
        {
          "name": "id",
          "type": "uint256"
        }
      ],
      "name": "outcomeGet",
      "outputs": [
        {
          "name": "",
          "type": "uint256[5]"
        }
      ],
      "payable": false,
      "stateMutability": "view",
      "type": "function",
      "signature": "0xe64d567b"
    },
    {
      "constant": true,
      "inputs": [],
      "name": "getBalance",
      "outputs": [
        {
          "name": "",
          "type": "uint256"
        }
      ],
      "payable": false,
      "stateMutability": "view",
      "type": "function",
      "signature": "0x12065fe0"
    }
  ],
  "bytecode": "0x6080604052633b9aca006000556000546001556000601b556000601c5533600260006101000a81548173ffffffffffffffffffffffffffffffffffffffff021916908373ffffffffffffffffffffffffffffffffffffffff160217905550620000766200007c640100000000026401000000009004565b6200080c565b6103e8601d60006005811015156200009057fe5b60030201600001819055506101406040519081016040528061014561ffff16815260200160b461ffff168152602001608c61ffff168152602001606861ffff168152602001603461ffff168152602001603061ffff168152602001602a61ffff168152602001602761ffff168152602001602461ffff168152602001602261ffff16815250601d60006005811015156200012657fe5b6003020160010190600a6200013d92919062000735565b5061014060405190810160405280601260ff168152602001600860ff168152602001600a60ff168152602001600760ff168152602001600060ff168152602001600960ff168152602001601360ff168152602001600e60ff168152602001600d60ff168152602001600360ff16815250601d6000600581101515620001be57fe5b6003020160020190600a620001d59291906200078d565b506103e8601d6001600581101515620001ea57fe5b60030201600001819055506101406040519081016040528061011a61ffff16815260200160be61ffff16815260200160a961ffff16815260200160a661ffff168152602001606961ffff168152602001602861ffff168152602001601d61ffff168152602001600b61ffff168152602001600561ffff168152602001600361ffff16815250601d60016005811015156200028057fe5b6003020160010190600a6200029792919062000735565b5061014060405190810160405280600060ff168152602001600a60ff168152602001601160ff168152602001601360ff168152602001600e60ff168152602001600660ff168152602001600b60ff168152602001600760ff168152602001600460ff168152602001600f60ff16815250601d60016005811015156200031857fe5b6003020160020190600a6200032f9291906200078d565b506103e8601d60026005811015156200034457fe5b60030201600001819055506101406040519081016040528061010b61ffff16815260200160c761ffff168152602001607d61ffff168152602001607c61ffff168152602001605361ffff168152602001605061ffff168152602001605061ffff168152602001601961ffff168152602001600c61ffff168152602001600561ffff16815250601d6002600581101515620003da57fe5b6003020160010190600a620003f192919062000735565b5061014060405190810160405280600e60ff168152602001600c60ff168152602001601060ff168152602001600d60ff168152602001600860ff168152602001600360ff168152602001600660ff168152602001600060ff168152602001601260ff168152602001600560ff16815250601d60026005811015156200047257fe5b6003020160020190600a620004899291906200078d565b506103e8601d60036005811015156200049e57fe5b60030201600001819055506101406040519081016040528060f460ff16815260200160e960ff168152602001606760ff168152602001605660ff168152602001605260ff168152602001605060ff168152602001603e60ff168152602001603e60ff168152602001602e60ff168152602001600260ff16815250601d60036005811015156200052957fe5b6003020160010190600a620005409291906200078d565b5061014060405190810160405280600560ff168152602001601360ff168152602001600260ff168152602001601060ff168152602001600b60ff168152602001600160ff168152602001601160ff168152602001600060ff168152602001600d60ff168152602001600460ff16815250601d6003600581101515620005c157fe5b6003020160020190600a620005d89291906200078d565b506103e8601d6004600581101515620005ed57fe5b6003020160000181905550610140604051908101604052806101a161ffff16815260200160c061ffff168152602001607161ffff168152602001606561ffff168152602001605261ffff168152602001603f61ffff168152602001601161ffff168152602001600761ffff168152602001600561ffff168152602001600361ffff16815250601d60046005811015156200068357fe5b6003020160010190600a6200069a92919062000735565b5061014060405190810160405280600c60ff168152602001601160ff168152602001600b60ff168152602001600360ff168152602001600260ff168152602001600d60ff168152602001600a60ff168152602001601360ff168152602001600860ff168152602001601060ff16815250601d60046005811015156200071b57fe5b6003020160020190600a620007329291906200078d565b50565b8280548282559060005260206000209081019282156200077a579160200282015b8281111562000779578251829061ffff1690559160200191906001019062000756565b5b509050620007899190620007e4565b5090565b828054828255906000526020600020908101928215620007d1579160200282015b82811115620007d0578251829060ff16905591602001919060010190620007ae565b5b509050620007e09190620007e4565b5090565b6200080991905b8082111562000805576000816000905550600101620007eb565b5090565b90565b611d5f806200081c6000396000f3fe60806040526004361061016a576000357c0100000000000000000000000000000000000000000000000000000000900463ffffffff16806310fa18781461016f57806312065fe0146101aa57806322af00fa146101d55780632422eb9c1461025e5780632ac485aa146102ad5780633a208000146102d857806341c0e1b51461030357806361bc221a1461031a57806365ac7fa614610345578063667d5d22146103805780636898f82b1461038a57806372638b9c146103c55780637bef46f5146103f05780638c7fbb63146104555780638da5cb5b146104c1578063962254a414610518578063988a2312146105715780639e30f05d14610588578063b60d428814610603578063c947f0611461060d578063d7c6fc2714610638578063d98f608814610691578063e427d026146106bc578063e566f2b2146106e7578063e64d567b1461073a578063e9d3ea6b146107b1578063f977f85e14610802578063fa60c0bc14610855575b600080fd5b34801561017b57600080fd5b506101a86004803603602081101561019257600080fd5b8101908080359060200190929190505050610880565b005b3480156101b657600080fd5b506101bf610a51565b6040518082815260200191505060405180910390f35b3480156101e157600080fd5b5061020e600480360360208110156101f857600080fd5b8101908080359060200190929190505050610a70565b604051808473ffffffffffffffffffffffffffffffffffffffff1673ffffffffffffffffffffffffffffffffffffffff168152602001838152602001828152602001935050505060405180910390f35b34801561026a57600080fd5b506102976004803603602081101561028157600080fd5b8101908080359060200190929190505050610aba565b6040518082815260200191505060405180910390f35b3480156102b957600080fd5b506102c2610add565b6040518082815260200191505060405180910390f35b3480156102e457600080fd5b506102ed610ae2565b6040518082815260200191505060405180910390f35b34801561030f57600080fd5b50610318610ae8565b005b34801561032657600080fd5b5061032f610bd5565b6040518082815260200191505060405180910390f35b34801561035157600080fd5b5061037e6004803603602081101561036857600080fd5b8101908080359060200190929190505050610bdb565b005b610388610c41565b005b34801561039657600080fd5b506103c3600480360360208110156103ad57600080fd5b8101908080359060200190929190505050610dd5565b005b3480156103d157600080fd5b506103da610fc3565b6040518082815260200191505060405180910390f35b3480156103fc57600080fd5b5061043f6004803603602081101561041357600080fd5b81019080803573ffffffffffffffffffffffffffffffffffffffff169060200190929190505050610fc8565b6040518082815260200191505060405180910390f35b34801561046157600080fd5b506104a46004803603602081101561047857600080fd5b81019080803573ffffffffffffffffffffffffffffffffffffffff169060200190929190505050610fe0565b604051808381526020018281526020019250505060405180910390f35b3480156104cd57600080fd5b506104d6611004565b604051808273ffffffffffffffffffffffffffffffffffffffff1673ffffffffffffffffffffffffffffffffffffffff16815260200191505060405180910390f35b34801561052457600080fd5b5061055b6004803603604081101561053b57600080fd5b81019080803590602001909291908035906020019092919050505061102a565b6040518082815260200191505060405180910390f35b34801561057d57600080fd5b50610586611051565b005b34801561059457600080fd5b506105c1600480360360208110156105ab57600080fd5b8101908080359060200190929190505050611380565b604051808273ffffffffffffffffffffffffffffffffffffffff1673ffffffffffffffffffffffffffffffffffffffff16815260200191505060405180910390f35b61060b6113b5565b005b34801561061957600080fd5b506106226113dd565b6040518082815260200191505060405180910390f35b34801561064457600080fd5b5061067b6004803603604081101561065b57600080fd5b8101908080359060200190929190803590602001909291905050506113e3565b6040518082815260200191505060405180910390f35b34801561069d57600080fd5b506106a6611414565b6040518082815260200191505060405180910390f35b3480156106c857600080fd5b506106d1611419565b6040518082815260200191505060405180910390f35b3480156106f357600080fd5b506107206004803603602081101561070a57600080fd5b810190808035906020019092919050505061141f565b604051808215151515815260200191505060405180910390f35b34801561074657600080fd5b506107736004803603602081101561075d57600080fd5b8101908080359060200190929190505050611438565b6040518082600560200280838360005b8381101561079e578082015181840152602081019050610783565b5050505090500191505060405180910390f35b3480156107bd57600080fd5b50610800600480360360208110156107d457600080fd5b81019080803573ffffffffffffffffffffffffffffffffffffffff169060200190929190505050611496565b005b34801561080e57600080fd5b5061083b6004803603602081101561082557600080fd5b810190808035906020019092919050505061153c565b604051808215151515815260200191505060405180910390f35b34801561086157600080fd5b5061086a61155c565b6040518082815260200191505060405180910390f35b6000804333604051602001808381526020018273ffffffffffffffffffffffffffffffffffffffff1673ffffffffffffffffffffffffffffffffffffffff166c010000000000000000000000000281526014019250505060405160208183030381529060405280519060200120600190049050600080600090505b600560ff16811015610a2657601d8160058110151561091657fe5b60030201600001548381151561092857fe5b0693506001601d8260058110151561093c57fe5b60030201600101600081548110151561095157fe5b906000526020600020015403915060008090505b601d8260058110151561097457fe5b6003020160010180549050811015610a185782851115156109d657601d8260058110151561099e57fe5b60030201600201818154811015156109b257fe5b9060005260206000200154602c836005811015156109cc57fe5b0181905550610a18565b601d826005811015156109e557fe5b60030201600101600182018154811015156109fc57fe5b9060005260206000200154830192508080600101915050610965565b5080806001019150506108fb565b50602c60316000868152602001908152602001600020906005610a4a929190611cae565b5050505050565b60003073ffffffffffffffffffffffffffffffffffffffff1631905090565b60036020528060005260406000206000915090508060000160009054906101000a900473ffffffffffffffffffffffffffffffffffffffff16908060010154908060020154905083565b601d81600581101515610ac957fe5b600302016000915090508060000154905081565b601481565b60015481565b600260009054906101000a900473ffffffffffffffffffffffffffffffffffffffff1673ffffffffffffffffffffffffffffffffffffffff163373ffffffffffffffffffffffffffffffffffffffff16141515610b4457600080fd5b60008090505b6014811015610b9957610b8c600782601481101515610b6557fe5b0160009054906101000a900473ffffffffffffffffffffffffffffffffffffffff16611561565b8080600101915050610b4a565b50600260009054906101000a900473ffffffffffffffffffffffffffffffffffffffff1673ffffffffffffffffffffffffffffffffffffffff16ff5b601b5481565b600260009054906101000a900473ffffffffffffffffffffffffffffffffffffffff1673ffffffffffffffffffffffffffffffffffffffff163373ffffffffffffffffffffffffffffffffffffffff16141515610c3757600080fd5b8060008190555050565b600060015434811515610c5057fe5b06141515610c5d57600080fd5b600a3073ffffffffffffffffffffffffffffffffffffffff1631811515610c8057fe5b043411151515610c8f57600080fd5b6060604051908101604052803373ffffffffffffffffffffffffffffffffffffffff1681526020013481526020016000430181525060036000601b54815260200190815260200160002060008201518160000160006101000a81548173ffffffffffffffffffffffffffffffffffffffff021916908373ffffffffffffffffffffffffffffffffffffffff1602179055506020820151816001015560408201518160020155905050610d416001611678565b7f7363e6581df4db69463222156be4a09656528b9f1302890fa4c0b60819b69fc6333460034301601b54604051808573ffffffffffffffffffffffffffffffffffffffff1673ffffffffffffffffffffffffffffffffffffffff16815260200184815260200183815260200182815260200194505050505060405180910390a1601b60008154809291906001019190505550565b60006003600083815260200190815260200160002090508060000160009054906101000a900473ffffffffffffffffffffffffffffffffffffffff1673ffffffffffffffffffffffffffffffffffffffff163373ffffffffffffffffffffffffffffffffffffffff16141515610e4a57600080fd5b80600201544310151515610e5d57600080fd5b60ff8160020154014311151515610e7357600080fd5b6004600083815260200190815260200160002060009054906101000a900460ff16151515610ea057600080fd5b610ea982610880565b60016004600084815260200190815260200160002060006101000a81548160ff0219169083151502179055506000610f22602c600580602002604051908101604052809291908260058015610f13576020028201915b815481526020019060010190808311610eff575b505050505083600101546118a7565b90506000811115610f7f57610f376000611678565b3373ffffffffffffffffffffffffffffffffffffffff166108fc829081150290604051600060405180830381858888f19350505050158015610f7d573d6000803e3d6000fd5b505b7fde375d5f6628b29fc599d7672d0d7475a6b065940041879fa73f4e1db7d3ac208382604051808381526020018281526020019250505060405180910390a1505050565b601481565b60066020528060005260406000206000915090505481565b60056020528060005260406000206000915090508060000154908060010154905082565b600260009054906101000a900473ffffffffffffffffffffffffffffffffffffffff1681565b60316020528160005260406000208160058110151561104557fe5b01600091509150505481565b600080600090505b601481101561137c5760006006600060078460148110151561107757fe5b0160009054906101000a900473ffffffffffffffffffffffffffffffffffffffff1673ffffffffffffffffffffffffffffffffffffffff1673ffffffffffffffffffffffffffffffffffffffff168152602001908152602001600020541415611153576000600560006007846014811015156110ef57fe5b0160009054906101000a900473ffffffffffffffffffffffffffffffffffffffff1673ffffffffffffffffffffffffffffffffffffffff1673ffffffffffffffffffffffffffffffffffffffff168152602001908152602001600020600001819055505b6111e36006600060078460148110151561116957fe5b0160009054906101000a900473ffffffffffffffffffffffffffffffffffffffff1673ffffffffffffffffffffffffffffffffffffffff1673ffffffffffffffffffffffffffffffffffffffff168152602001908152602001600020543073ffffffffffffffffffffffffffffffffffffffff16316113e3565b915081600660006007846014811015156111f957fe5b0160009054906101000a900473ffffffffffffffffffffffffffffffffffffffff1673ffffffffffffffffffffffffffffffffffffffff1673ffffffffffffffffffffffffffffffffffffffff1681526020019081526020016000205481151561125f57fe5b046005600060078460148110151561127357fe5b0160009054906101000a900473ffffffffffffffffffffffffffffffffffffffff1673ffffffffffffffffffffffffffffffffffffffff1673ffffffffffffffffffffffffffffffffffffffff16815260200190815260200160002060000181905550813073ffffffffffffffffffffffffffffffffffffffff16318115156112f857fe5b046005600060078460148110151561130c57fe5b0160009054906101000a900473ffffffffffffffffffffffffffffffffffffffff1673ffffffffffffffffffffffffffffffffffffffff1673ffffffffffffffffffffffffffffffffffffffff168152602001908152602001600020600101819055508080600101915050611059565b5050565b60078160148110151561138f57fe5b016000915054906101000a900473ffffffffffffffffffffffffffffffffffffffff1681565b6113be3461141f565b15156113c957600080fd5b6113d333346118f9565b6113db611051565b565b601c5481565b6000805b60008314151561140a5782905082848115156113ff57fe5b0692508093506113e7565b8391505092915050565b600081565b60005481565b6000806000548381151561142f57fe5b06149050919050565b611440611ceb565b6031600083815260200190815260200160002060058060200260405190810160405280929190826005801561148a576020028201915b815481526020019060010190808311611476575b50505050509050919050565b8073ffffffffffffffffffffffffffffffffffffffff163373ffffffffffffffffffffffffffffffffffffffff16148061151d5750600260009054906101000a900473ffffffffffffffffffffffffffffffffffffffff1673ffffffffffffffffffffffffffffffffffffffff163373ffffffffffffffffffffffffffffffffffffffff16145b151561152857600080fd5b61153181611561565b611539611051565b50565b60046020528060005260406000206000915054906101000a900460ff1681565b600a81565b6000600660008373ffffffffffffffffffffffffffffffffffffffff1673ffffffffffffffffffffffffffffffffffffffff168152602001908152602001600020541115611675578073ffffffffffffffffffffffffffffffffffffffff166108fc600660008473ffffffffffffffffffffffffffffffffffffffff1673ffffffffffffffffffffffffffffffffffffffff168152602001908152602001600020549081150290604051600060405180830381858888f1935050505015801561162e573d6000803e3d6000fd5b506000600660008373ffffffffffffffffffffffffffffffffffffffff1673ffffffffffffffffffffffffffffffffffffffff168152602001908152602001600020819055505b50565b60008060008090505b60148110156118a1576005600060078360148110151561169d57fe5b0160009054906101000a900473ffffffffffffffffffffffffffffffffffffffff1673ffffffffffffffffffffffffffffffffffffffff1673ffffffffffffffffffffffffffffffffffffffff1681526020019081526020016000206000015492506005600060078360148110151561171257fe5b0160009054906101000a900473ffffffffffffffffffffffffffffffffffffffff1673ffffffffffffffffffffffffffffffffffffffff1673ffffffffffffffffffffffffffffffffffffffff1681526020019081526020016000206001015491508315611809578183340281151561178757fe5b046006600060078460148110151561179b57fe5b0160009054906101000a900473ffffffffffffffffffffffffffffffffffffffff1673ffffffffffffffffffffffffffffffffffffffff1673ffffffffffffffffffffffffffffffffffffffff16815260200190815260200160002060008282540192505081905550611894565b8183340281151561181657fe5b046006600060078460148110151561182a57fe5b0160009054906101000a900473ffffffffffffffffffffffffffffffffffffffff1673ffffffffffffffffffffffffffffffffffffffff1673ffffffffffffffffffffffffffffffffffffffff168152602001908152602001600020600082825403925050819055505b8080600101915050611681565b50505050565b6000808360006005811015156118b957fe5b60200201511480156118de575060018360016005811015156118d757fe5b6020020151145b156118ee578160050290506118f3565b600090505b92915050565b6000600660006007600060148110151561190f57fe5b0160009054906101000a900473ffffffffffffffffffffffffffffffffffffffff1673ffffffffffffffffffffffffffffffffffffffff1673ffffffffffffffffffffffffffffffffffffffff1681526020019081526020016000205490506000809050600080600090505b6014811015611b9d5760078160148110151561199357fe5b0160009054906101000a900473ffffffffffffffffffffffffffffffffffffffff1691506000600660008473ffffffffffffffffffffffffffffffffffffffff1673ffffffffffffffffffffffffffffffffffffffff168152602001908152602001600020541415611aa35785600782601481101515611a0f57fe5b0160006101000a81548173ffffffffffffffffffffffffffffffffffffffff021916908373ffffffffffffffffffffffffffffffffffffffff16021790555084600660008873ffffffffffffffffffffffffffffffffffffffff1673ffffffffffffffffffffffffffffffffffffffff16815260200190815260200160002081905550611a9a611051565b50505050611caa565b8360066000600784601481101515611ab757fe5b0160009054906101000a900473ffffffffffffffffffffffffffffffffffffffff1673ffffffffffffffffffffffffffffffffffffffff1673ffffffffffffffffffffffffffffffffffffffff168152602001908152602001600020541015611b905760066000600783601481101515611b2d57fe5b0160009054906101000a900473ffffffffffffffffffffffffffffffffffffffff1673ffffffffffffffffffffffffffffffffffffffff1673ffffffffffffffffffffffffffffffffffffffff1681526020019081526020016000205493508092505b808060010191505061197b565b50606460148402811515611bad57fe5b048301841115611c9657600782601481101515611bc657fe5b0160009054906101000a900473ffffffffffffffffffffffffffffffffffffffff169050611bf381611561565b84600783601481101515611c0357fe5b0160006101000a81548173ffffffffffffffffffffffffffffffffffffffff021916908373ffffffffffffffffffffffffffffffffffffffff16021790555083600660008373ffffffffffffffffffffffffffffffffffffffff1673ffffffffffffffffffffffffffffffffffffffff16815260200190815260200160002081905550611c8e611051565b505050611caa565b60016000141515611ca657600080fd5b5050505b5050565b8260058101928215611cda579182015b82811115611cd9578254825591600101919060010190611cbe565b5b509050611ce79190611d0e565b5090565b60a060405190810160405280600590602082028038833980820191505090505090565b611d3091905b80821115611d2c576000816000905550600101611d14565b5090565b9056fea165627a7a72305820c033cc0d8cb2bb071fd28f8d0f5bc0dcdbeafd09552769f96117b1f366557c380029",
  "source": "pragma solidity ^0.5.0;\n\ncontract SlotMachine {\n\n  // ******************************\n  // DEFINE THE MACHINE\n\n  // MACHINE SPECIFIC CONSTANTS AND VARIABLES\n  uint8 constant numReel = 5;\n\n  // DEFINE THE PROBABILITIES FOR THE REEL SYMBOLS\n  function makeMachine() internal {\n    reels[0].probDenominator = 1000;\n    reels[0].probs = [325, 180, 140, 104, 52, 48, 42, 39, 36, 34];\n    reels[0].eventLabels = [18, 8, 10, 7, 0, 9, 19, 14, 13, 3];\n    reels[1].probDenominator = 1000;\n    reels[1].probs = [282, 190, 169, 166, 105, 40, 29, 11, 5, 3];\n    reels[1].eventLabels = [0, 10, 17, 19, 14, 6, 11, 7, 4, 15];\n    reels[2].probDenominator = 1000;\n    reels[2].probs = [267, 199, 125, 124, 83, 80, 80, 25, 12, 5];\n    reels[2].eventLabels = [14, 12, 16, 13, 8, 3, 6, 0, 18, 5];\n    reels[3].probDenominator = 1000;\n    reels[3].probs = [244, 233, 103, 86, 82, 80, 62, 62, 46, 2];\n    reels[3].eventLabels = [5, 19, 2, 16, 11, 1, 17, 0, 13, 4];\n    reels[4].probDenominator = 1000;\n    reels[4].probs = [417, 192, 113, 101, 82, 63, 17, 7, 5, 3];\n    reels[4].eventLabels = [12, 17, 11, 3, 2, 13, 10, 19, 8, 16];\n\n  }\n\n  // CALCULATE THE PAYOUT\n  function paytable(uint[numReel] memory outcome, uint betAmount) internal pure returns (uint) {\n    if (outcome[0] == 0 && outcome[1] == 1) {\n      return 5 * betAmount;\n    }\n    else {\n      return 0;\n    }\n  }\n\n// END MACHINE DEFINITION\n// ***************************************\n\n  // STRUCTURES\n  struct Reel {\n    uint probDenominator;\n    uint[] probs;\n    uint[] eventLabels;\n  }\n\n  struct Bet {\n    address user;\n    uint amount;\n    uint block;\n  }\n\n  struct HousePercentage {\n    uint numerator;\n    uint denominator;\n  }\n\n  // PARAMETERS\n  uint constant public maxHouseMembers = 20; // max number of investors/owners\n  uint constant public minPercentageIncrease = 20; // min overage for kicking someone on funding\n  uint constant public blockDelay = 0; // 0 for debugging, 3 for production\n  uint constant public maxBetAsBalancePercentage = 10;  // percentage of house max bet\n  uint public minFundDivisor = 1000000000;\n  uint public minBetDivisor = minFundDivisor;\n\n\n  // VARIABLES\n  address payable public owner;\n  mapping(uint => Bet) public bets;\n  mapping(uint => bool) public alreadyPlayed;\n  mapping(address => HousePercentage) public housePercentages;\n  mapping(address => uint) public houseAccounts;\n  address payable [maxHouseMembers] public houseMemberArray;\n  uint public counter = 0;\n  uint public nonceForRandom = 0;\n  Reel[numReel] public reels;\n  uint[numReel] thisOutcome;\n  mapping(uint => uint[numReel]) public outcomes;\n\n  // DEFINE EVENTS\n  event BetPlaced(address user, uint amount, uint block, uint counter);\n  event Awarded(uint id, uint award);\n  event Spin(uint id, uint award);\n\n  constructor () public payable {\n    owner = msg.sender;\n    makeMachine();\n  }\n\n  // DETERMINE THE OUTCOME SYMBOL FOR EACH REEL\n  function sample(uint id) public {\n    uint thisRandom;\n    uint thisHash = uint(keccak256(abi.encodePacked(block.number, msg.sender)));\n    uint runningProbSum;\n\n    for (uint i = 0; i < numReel; i++) {\n      thisRandom = thisHash % reels[i].probDenominator;\n      // CONVERT RANDOM NUMBER TO EVENT\n      runningProbSum = reels[i].probs[0] - 1;\n      for (uint j = 0; j < reels[i].probs.length; j++){\n        if (thisRandom <= runningProbSum) {\n          thisOutcome[i] = reels[i].eventLabels[j];\n          break;\n        }\n        else {\n          runningProbSum += reels[i].probs[j + 1];\n        }\n      }\n    }\n    outcomes[id] = thisOutcome;\n  }\n\n  // DISTRIBUTE BETS AND AWARDS ACCORDING TO PERCENTAGE OWNERSHIP\n  function distributeAmount(bool bet) internal {\n    uint numer;\n    uint denom;\n\n    for (uint i = 0; i < maxHouseMembers; i++) {\n      numer = housePercentages[houseMemberArray[i]].numerator;\n      denom = housePercentages[houseMemberArray[i]].denominator;\n\n      // INCOMING BET\n      if (bet) {\n        houseAccounts[houseMemberArray[i]] += (msg.value * numer)/denom;\n      }\n      // OUTGOING PAYOUT\n      else {\n        houseAccounts[houseMemberArray[i]] -= (msg.value * numer)/denom;\n      }\n    }\n  }\n\n  // PLACE A WAGER\n  function wager () payable public {\n    require(msg.value % minBetDivisor == 0);\n    require(msg.value <= address(this).balance/maxBetAsBalancePercentage);\n    bets[counter] = Bet(msg.sender, msg.value, block.number + blockDelay);\n    distributeAmount(true);\n    emit BetPlaced(msg.sender, msg.value, block.number + 3, counter);\n    counter++;\n  }\n\n  // PLAY THE GAME\n  function play (uint id) public {\n      Bet storage bet = bets[id];\n      require(msg.sender == bet.user);\n      require(block.number >= bet.block);\n      require(block.number <= bet.block + 255); // make this into a refund\n      require(!alreadyPlayed[id]);\n\n      sample(id);\n\n      alreadyPlayed[id] = true;\n      uint award = paytable(thisOutcome, bet.amount);\n      if (award > 0) {\n        distributeAmount(false);\n        msg.sender.transfer(award);\n      }\n\n      emit Awarded(id, award);\n  }\n\n  // TRY TO ADD A NEW MEMBER (OWNER/INVESTOR)\n  function addMember(address payable addressToAdd, uint initialFund) private {\n\n    uint currentMin = houseAccounts[houseMemberArray[0]];\n    uint currentMinIndex = 0;\n    address payable thisAddress;\n\n    for (uint i = 0; i < maxHouseMembers; i++){\n      thisAddress = houseMemberArray[i];\n      if (houseAccounts[thisAddress] == 0) {\n          houseMemberArray[i] = addressToAdd;\n          houseAccounts[addressToAdd] = initialFund;\n          calculateHousePercentages();\n          return;\n      }\n      else {\n        if (houseAccounts[houseMemberArray[i]] < currentMin) {\n          currentMin = houseAccounts[houseMemberArray[i]];\n          currentMinIndex = i;\n        }\n      }\n    }\n    if ( initialFund > currentMin + ((currentMin * minPercentageIncrease)/100) ) {\n      thisAddress = houseMemberArray[currentMinIndex];\n      houseRemoveMember(thisAddress);\n      houseMemberArray[currentMinIndex] = addressToAdd;\n      houseAccounts[thisAddress] = initialFund;\n      calculateHousePercentages();\n      return;\n    }\n    else {\n      require(0 == 1);\n    }\n  }\n\n  // EUCLID'S ALGORITHM FOR GREATEST COMMON DIVISOR\n  function gcdCalculate(uint a, uint b) public pure returns (uint) {\n    uint t;\n    while (b != 0) {\n      t = b;\n      b = a % b;\n      a = t;\n    }\n    return a;\n  }\n\n  // RECALULATE ALL OWNERSHIP PERCENTAGES\n  function calculateHousePercentages() public {\n    uint gcd;\n\n    for (uint i = 0; i < maxHouseMembers; i++) {\n      if (houseAccounts[houseMemberArray[i]] == 0) {\n        housePercentages[houseMemberArray[i]].numerator = 0;\n      }\n      gcd = gcdCalculate(houseAccounts[houseMemberArray[i]], address(this).balance);\n\n      housePercentages[houseMemberArray[i]].numerator = houseAccounts[houseMemberArray[i]]/gcd;\n      housePercentages[houseMemberArray[i]].denominator = address(this).balance/gcd;\n    }\n  }\n\n  //  ALLOW OWNER TO SET AMOUNT WHICH MUST EVENLY DIVIDE ALL FUNDS\n  function setMinFundDivisor(uint amount) public {\n    require(msg.sender == owner);\n    minFundDivisor = amount;\n  }\n\n  // CHECK THAT INITIAL FUND IS MULTIPLE OF minFundDivisor\n  function multipleOf(uint amount) public view returns (bool) {\n    return amount % minFundDivisor == 0;\n  }\n\n  // FUND THE CASINO\n  function fund () public payable {\n    require(multipleOf(msg.value));\n    addMember(msg.sender, msg.value);\n    calculateHousePercentages();\n  }\n\n  // REMOVE A MEMBER (OWNER/INVESTOR)\n  function houseRemoveMember(address payable houseMember) private {\n    if (houseAccounts[houseMember] > 0) {\n      houseMember.transfer(houseAccounts[houseMember]);\n      houseAccounts[houseMember] = 0;\n    }\n  }\n\n  // WITHDRAW AND REMOVE MEMBER\n  function houseWithdraw (address payable houseMember) public {\n    require(msg.sender == houseMember || msg.sender == owner);\n    houseRemoveMember(houseMember);\n    calculateHousePercentages();\n  }\n\n  // TRANSFER ALL FUNDS TO MEMBERS AND DESTROY THE CONTRACT\n  function kill () public {\n    require(msg.sender == owner);\n    for (uint i = 0; i < maxHouseMembers; i++) {\n      houseRemoveMember(houseMemberArray[i]);\n    }\n    selfdestruct(owner);\n  }\n\n  // GETTERS FOR DEBUGGING\n  function outcomeGet(uint id) public view returns (uint[numReel] memory) {\n    return outcomes[id];\n  }\n\n  function getBalance () view public returns (uint) {\n    return address(this).balance;\n  }\n}\n",
  "sourcePath": "/Users/mettinger/github/casino/contracts/slotMachine.sol",
  "compiler": {
    "name": "solc",
    "version": "0.5.0+commit.1d4f565a.Emscripten.clang"
  },
  "schemaVersion": "3.0.1",
  "updatedAt": "2019-01-31T22:17:54.172Z",
  "devdoc": {
    "methods": {}
  },
  "userdoc": {
    "methods": {}
  }
}