{
  "contractName": "SlotMachine",
  "abi": [
    {
      "constant": true,
      "inputs": [
        {
          "name": "",
          "type": "uint256"
        }
      ],
      "name": "bets",
      "outputs": [
        {
          "name": "user",
          "type": "address"
        },
        {
          "name": "amount",
          "type": "uint256"
        },
        {
          "name": "block",
          "type": "uint256"
        }
      ],
      "payable": false,
      "stateMutability": "view",
      "type": "function"
    },
    {
      "constant": true,
      "inputs": [],
      "name": "counter",
      "outputs": [
        {
          "name": "",
          "type": "uint256"
        }
      ],
      "payable": false,
      "stateMutability": "view",
      "type": "function"
    },
    {
      "constant": true,
      "inputs": [],
      "name": "owner",
      "outputs": [
        {
          "name": "",
          "type": "address"
        }
      ],
      "payable": false,
      "stateMutability": "view",
      "type": "function"
    },
    {
      "constant": true,
      "inputs": [
        {
          "name": "",
          "type": "uint256"
        },
        {
          "name": "",
          "type": "uint256"
        }
      ],
      "name": "outcomes",
      "outputs": [
        {
          "name": "",
          "type": "uint256"
        }
      ],
      "payable": false,
      "stateMutability": "view",
      "type": "function"
    },
    {
      "constant": true,
      "inputs": [],
      "name": "nonce",
      "outputs": [
        {
          "name": "",
          "type": "uint256"
        }
      ],
      "payable": false,
      "stateMutability": "view",
      "type": "function"
    },
    {
      "constant": true,
      "inputs": [
        {
          "name": "",
          "type": "uint256"
        }
      ],
      "name": "spun",
      "outputs": [
        {
          "name": "",
          "type": "bool"
        }
      ],
      "payable": false,
      "stateMutability": "view",
      "type": "function"
    },
    {
      "constant": true,
      "inputs": [
        {
          "name": "",
          "type": "uint256"
        }
      ],
      "name": "numSymbols",
      "outputs": [
        {
          "name": "",
          "type": "uint256"
        }
      ],
      "payable": false,
      "stateMutability": "view",
      "type": "function"
    },
    {
      "constant": true,
      "inputs": [
        {
          "name": "",
          "type": "uint256"
        }
      ],
      "name": "machine",
      "outputs": [
        {
          "name": "probDenominator",
          "type": "uint256"
        }
      ],
      "payable": false,
      "stateMutability": "view",
      "type": "function"
    },
    {
      "inputs": [],
      "payable": true,
      "stateMutability": "payable",
      "type": "constructor"
    },
    {
      "anonymous": false,
      "inputs": [
        {
          "indexed": false,
          "name": "user",
          "type": "address"
        },
        {
          "indexed": false,
          "name": "amount",
          "type": "uint256"
        },
        {
          "indexed": false,
          "name": "block",
          "type": "uint256"
        },
        {
          "indexed": false,
          "name": "counter",
          "type": "uint256"
        }
      ],
      "name": "BetPlaced",
      "type": "event"
    },
    {
      "anonymous": false,
      "inputs": [
        {
          "indexed": false,
          "name": "id",
          "type": "uint256"
        },
        {
          "indexed": false,
          "name": "real0",
          "type": "uint256"
        },
        {
          "indexed": false,
          "name": "real1",
          "type": "uint256"
        },
        {
          "indexed": false,
          "name": "award",
          "type": "uint256"
        }
      ],
      "name": "Spin",
      "type": "event"
    },
    {
      "constant": false,
      "inputs": [],
      "name": "wager",
      "outputs": [],
      "payable": true,
      "stateMutability": "payable",
      "type": "function"
    },
    {
      "constant": false,
      "inputs": [
        {
          "name": "id",
          "type": "uint256"
        }
      ],
      "name": "outcomeGet",
      "outputs": [],
      "payable": false,
      "stateMutability": "nonpayable",
      "type": "function"
    },
    {
      "constant": false,
      "inputs": [
        {
          "name": "id",
          "type": "uint256"
        }
      ],
      "name": "spin",
      "outputs": [],
      "payable": false,
      "stateMutability": "nonpayable",
      "type": "function"
    },
    {
      "constant": false,
      "inputs": [],
      "name": "fund",
      "outputs": [],
      "payable": true,
      "stateMutability": "payable",
      "type": "function"
    },
    {
      "constant": false,
      "inputs": [
        {
          "name": "withdrawAmount",
          "type": "uint256"
        }
      ],
      "name": "houseWithdraw",
      "outputs": [],
      "payable": false,
      "stateMutability": "nonpayable",
      "type": "function"
    },
    {
      "constant": true,
      "inputs": [],
      "name": "getBalance",
      "outputs": [
        {
          "name": "",
          "type": "uint256"
        }
      ],
      "payable": false,
      "stateMutability": "view",
      "type": "function"
    },
    {
      "constant": false,
      "inputs": [],
      "name": "kill",
      "outputs": [],
      "payable": false,
      "stateMutability": "nonpayable",
      "type": "function"
    }
  ],
  "bytecode": "0x608060405260006001556000600455336000806101000a81548173ffffffffffffffffffffffffffffffffffffffff021916908373ffffffffffffffffffffffffffffffffffffffff160217905550620000676200006d640100000000026401000000009004565b620002de565b6064600a60006002811015156200008057fe5b6002020160000181905550608060405190810160405280603160ff168152602001606160ff168152602001606260ff168152602001606360ff16815250600a6000600281101515620000ce57fe5b60020201600101906004620000e59291906200025f565b506064600a6001600281101515620000f957fe5b6002020160000181905550608060405190810160405280600160ff168152602001600260ff168152602001603260ff168152602001606360ff16815250600a60016002811015156200014757fe5b600202016001019060046200015e9291906200025f565b5060008090505b600260ff168160ff16101562000201576001600a8260ff166002811015156200018a57fe5b600202016000015403600a8260ff16600281101515620001a657fe5b600202016001016001600a8460ff16600281101515620001c257fe5b600202016001018054905003815481101515620001db57fe5b9060005260206000200154141515620001f357600080fd5b808060010191505062000165565b5060008090505b600260ff168160ff1610156200025c57600a8160ff166002811015156200022b57fe5b600202016001018054905060088260ff166002811015156200024957fe5b0181905550808060010191505062000208565b50565b828054828255906000526020600020908101928215620002a3579160200282015b82811115620002a2578251829060ff1690559160200191906001019062000280565b5b509050620002b29190620002b6565b5090565b620002db91905b80821115620002d7576000816000905550600101620002bd565b5090565b90565b610cd180620002ee6000396000f3fe6080604052600436106100db576000357c0100000000000000000000000000000000000000000000000000000000900463ffffffff16806312065fe0146100e057806322af00fa1461010b57806341c0e1b51461019457806361bc221a146101ab578063667d5d22146101d65780637a1126f0146101e05780638da5cb5b1461021b578063962254a414610272578063a5b6ea8f146102cb578063affed0e014610306578063b60d428814610331578063b90da3ad1461033b578063d69285751461038e578063e64d567b146103dd578063f797a81914610418575b600080fd5b3480156100ec57600080fd5b506100f5610467565b6040518082815260200191505060405180910390f35b34801561011757600080fd5b506101446004803603602081101561012e57600080fd5b8101908080359060200190929190505050610486565b604051808473ffffffffffffffffffffffffffffffffffffffff1673ffffffffffffffffffffffffffffffffffffffff168152602001838152602001828152602001935050505060405180910390f35b3480156101a057600080fd5b506101a96104d0565b005b3480156101b757600080fd5b506101c0610565565b6040518082815260200191505060405180910390f35b6101de61056b565b005b3480156101ec57600080fd5b506102196004803603602081101561020357600080fd5b81019080803590602001909291905050506106b6565b005b34801561022757600080fd5b506102306107a1565b604051808273ffffffffffffffffffffffffffffffffffffffff1673ffffffffffffffffffffffffffffffffffffffff16815260200191505060405180910390f35b34801561027e57600080fd5b506102b56004803603604081101561029557600080fd5b8101908080359060200190929190803590602001909291905050506107c6565b6040518082815260200191505060405180910390f35b3480156102d757600080fd5b50610304600480360360208110156102ee57600080fd5b81019080803590602001909291905050506107ed565b005b34801561031257600080fd5b5061031b6109f9565b6040518082815260200191505060405180910390f35b6103396109ff565b005b34801561034757600080fd5b506103746004803603602081101561035e57600080fd5b8101908080359060200190929190505050610a01565b604051808215151515815260200191505060405180910390f35b34801561039a57600080fd5b506103c7600480360360208110156103b157600080fd5b8101908080359060200190929190505050610a21565b6040518082815260200191505060405180910390f35b3480156103e957600080fd5b506104166004803603602081101561040057600080fd5b8101908080359060200190929190505050610a3b565b005b34801561042457600080fd5b506104516004803603602081101561043b57600080fd5b8101908080359060200190929190505050610b2b565b6040518082815260200191505060405180910390f35b60003073ffffffffffffffffffffffffffffffffffffffff1631905090565b60026020528060005260406000206000915090508060000160009054906101000a900473ffffffffffffffffffffffffffffffffffffffff16908060010154908060020154905083565b6000809054906101000a900473ffffffffffffffffffffffffffffffffffffffff1673ffffffffffffffffffffffffffffffffffffffff163373ffffffffffffffffffffffffffffffffffffffff1614151561052b57600080fd5b6000809054906101000a900473ffffffffffffffffffffffffffffffffffffffff1673ffffffffffffffffffffffffffffffffffffffff16ff5b60015481565b60003411151561057a57600080fd5b6001600081548092919060010191905055506060604051908101604052803373ffffffffffffffffffffffffffffffffffffffff1681526020013481526020016003430181525060026000600154815260200190815260200160002060008201518160000160006101000a81548173ffffffffffffffffffffffffffffffffffffffff021916908373ffffffffffffffffffffffffffffffffffffffff16021790555060208201518160010155604082015181600201559050507f7363e6581df4db69463222156be4a09656528b9f1302890fa4c0b60819b69fc6333460034301600154604051808573ffffffffffffffffffffffffffffffffffffffff1673ffffffffffffffffffffffffffffffffffffffff16815260200184815260200183815260200182815260200194505050505060405180910390a1565b6000809054906101000a900473ffffffffffffffffffffffffffffffffffffffff1673ffffffffffffffffffffffffffffffffffffffff163373ffffffffffffffffffffffffffffffffffffffff1614151561071157600080fd5b3073ffffffffffffffffffffffffffffffffffffffff16318110151561073657600080fd5b6000809054906101000a900473ffffffffffffffffffffffffffffffffffffffff1673ffffffffffffffffffffffffffffffffffffffff166108fc829081150290604051600060405180830381858888f1935050505015801561079d573d6000803e3d6000fd5b5050565b6000809054906101000a900473ffffffffffffffffffffffffffffffffffffffff1681565b6003602052816000526040600020816002811015156107e157fe5b01600091509150505481565b60006002600083815260200190815260200160002090508060000160009054906101000a900473ffffffffffffffffffffffffffffffffffffffff1673ffffffffffffffffffffffffffffffffffffffff163373ffffffffffffffffffffffffffffffffffffffff1614151561086257600080fd5b8060020154431015151561087557600080fd5b60ff816002015401431115151561088b57600080fd5b6007600083815260200190815260200160002060009054906101000a900460ff161515156108b857600080fd5b6108c182610a3b565b60016007600084815260200190815260200160002060006101000a81548160ff021916908315150217905550600061093a600560028060200260405190810160405280929190826002801561092b576020028201915b815481526020019060010190808311610917575b50505050508360010154610b4e565b90503373ffffffffffffffffffffffffffffffffffffffff166108fc829081150290604051600060405180830381858888f19350505050158015610982573d6000803e3d6000fd5b507facaa9afc806fc667c9d3d06a8ecc938f0534a43b48ec47f91ac101034ff5610783600560006002811015156109b557fe5b0154600560016002811015156109c757fe5b0154846040518085815260200184815260200183815260200182815260200194505050505060405180910390a1505050565b60045481565b565b60076020528060005260406000206000915054906101000a900460ff1681565b600881600281101515610a3057fe5b016000915090505481565b600080600090505b600260ff16811015610b0257610a6e600a82600281101515610a6157fe5b6002020160000154610ba0565b915060008090505b600a82600281101515610a8557fe5b6002020160010180549050811015610af457600a82600281101515610aa657fe5b6002020160010181815481101515610aba57fe5b906000526020600020015483111515610ae75780600583600281101515610add57fe5b0181905550610af4565b8080600101915050610a76565b508080600101915050610a43565b50600560036000848152602001908152602001600020906002610b26929190610c43565b505050565b600a81600281101515610b3a57fe5b600202016000915090508060000154905081565b600080836000600281101515610b6057fe5b6020020151148015610b8557506001836001600281101515610b7e57fe5b6020020151145b15610b9557816005029050610b9a565b600090505b92915050565b600080824333600454604051602001808481526020018373ffffffffffffffffffffffffffffffffffffffff1673ffffffffffffffffffffffffffffffffffffffff166c0100000000000000000000000002815260140182815260200193505050506040516020818303038152906040528051906020012060019004811515610c2557fe5b06905060046000815480929190600101919050555080915050919050565b8260028101928215610c6f579182015b82811115610c6e578254825591600101919060010190610c53565b5b509050610c7c9190610c80565b5090565b610ca291905b80821115610c9e576000816000905550600101610c86565b5090565b9056fea165627a7a72305820eb3f5107b801f5ff0a82ce04d782f3b5e2355a45fc340095202e1d134ab3144a0029",
  "source": "pragma solidity ^0.5.0;\n\ncontract SlotMachine {\n\n  struct Reel {\n    uint probDenominator;\n    uint[] probCutoffs;\n  }\n\n  struct Bet {\n    address user;\n    uint amount;\n    uint block;\n  }\n\n  address payable public owner;\n  uint public counter = 0;\n  mapping(uint => Bet) public bets;\n  mapping(uint => uint[numReel]) public outcomes;\n  uint public nonce = 0;\n  uint[numReel] thisOutcome;\n  mapping(uint => bool) public spun;\n\n  // DEFINE THE MACHINE\n  uint8 constant numReel = 2;\n  uint[numReel] public numSymbols;\n  Reel[numReel] public machine;\n\n  function paytable(uint[numReel] memory outcome, uint betAmount) internal pure returns (uint) {\n    if (outcome[0] == 0 && outcome[1] == 1) {\n      return 5 * betAmount;\n    }\n    else {\n      return 0;\n    }\n  }\n\n  function makeMachine() internal {\n    machine[0].probDenominator = 100;\n    machine[0].probCutoffs = [49,97,98,99];\n\n    machine[1].probDenominator = 100;\n    machine[1].probCutoffs = [1,2,50,99];\n\n    // check that last cutoff is the max random number\n\n    for (uint8 i = 0; i < numReel; i++) {\n      require(machine[i].probCutoffs[machine[i].probCutoffs.length - 1] ==\n              machine[i].probDenominator - 1);\n    }\n\n    // record the number of symbols for each reel\n    for (uint8 i = 0; i < numReel; i++) {\n      numSymbols[i] = machine[i].probCutoffs.length;\n    }\n  }\n\n  // DEFINE EVENTS\n  event BetPlaced(address user, uint amount, uint block, uint counter);\n  event Spin(uint id, uint real0, uint real1, uint award);\n\n\n  constructor () public payable {\n    owner = msg.sender;\n    makeMachine();\n  }\n\n  function wager () payable public {\n    require(msg.value > 0);\n    counter++;\n    bets[counter] = Bet(msg.sender, msg.value, block.number + 3);\n    emit BetPlaced(msg.sender, msg.value, block.number + 3, counter);\n  }\n\n  function random(uint modulus) internal returns (uint) {\n    uint randomnumber = uint(keccak256(abi.encodePacked(block.number, msg.sender, nonce))) % modulus;\n    nonce++;\n    return randomnumber;\n  }\n\n  function outcomeGet(uint id) public {\n    uint thisRandom;\n\n    for (uint i = 0; i < numReel; i++) {\n      thisRandom = random(machine[i].probDenominator);\n      for (uint j = 0; j < machine[i].probCutoffs.length; j++){\n        if (thisRandom <= machine[i].probCutoffs[j]) {\n          thisOutcome[i] = j;\n          break;\n        }\n      }\n    }\n    outcomes[id] = thisOutcome;\n    //emit Spin(id, thisOutcome[0], thisOutcome[1]);\n  }\n\n  function spin (uint id) public {\n      Bet storage bet = bets[id];\n      require(msg.sender == bet.user);\n      require(block.number >= bet.block);\n      require(block.number <= bet.block + 255); // make this into a refund\n      require(!spun[id]);\n\n      outcomeGet(id);\n\n      spun[id] = true;\n      uint award = paytable(thisOutcome, bet.amount);\n      msg.sender.transfer(award);\n\n      emit Spin(id, thisOutcome[0], thisOutcome[1], award);\n  }\n\n  // make co-owners\n  function fund () public payable {}\n\n  // put limits on houseWithdraw\n  function houseWithdraw (uint withdrawAmount) public {\n    require(msg.sender == owner);\n    require(withdrawAmount < address(this).balance);\n    owner.transfer(withdrawAmount);\n  }\n\n  function getBalance () view public returns (uint) {\n    return address(this).balance;\n  }\n\n  function kill () public {\n    require(msg.sender == owner);\n    selfdestruct(owner);\n  }\n}\n",
  "sourcePath": "/Users/mettinger/github/casino/contracts/slotMachine.sol",
  "compiler": {
    "name": "solc",
    "version": "0.5.0+commit.1d4f565a.Emscripten.clang"
  },
  "schemaVersion": "3.0.1",
  "updatedAt": "2019-01-15T19:08:52.679Z",
  "devdoc": {
    "methods": {}
  },
  "userdoc": {
    "methods": {}
  }
}