{
  "contractName": "SlotMachine",
  "abi": [
    {
      "constant": true,
      "inputs": [
        {
          "name": "",
          "type": "uint256"
        }
      ],
      "name": "bets",
      "outputs": [
        {
          "name": "user",
          "type": "address"
        },
        {
          "name": "amount",
          "type": "uint256"
        },
        {
          "name": "block",
          "type": "uint256"
        }
      ],
      "payable": false,
      "stateMutability": "view",
      "type": "function"
    },
    {
      "constant": true,
      "inputs": [],
      "name": "maxHouseMembers",
      "outputs": [
        {
          "name": "",
          "type": "uint256"
        }
      ],
      "payable": false,
      "stateMutability": "view",
      "type": "function"
    },
    {
      "constant": true,
      "inputs": [],
      "name": "minBetDivisor",
      "outputs": [
        {
          "name": "",
          "type": "uint256"
        }
      ],
      "payable": false,
      "stateMutability": "view",
      "type": "function"
    },
    {
      "constant": true,
      "inputs": [],
      "name": "counter",
      "outputs": [
        {
          "name": "",
          "type": "uint256"
        }
      ],
      "payable": false,
      "stateMutability": "view",
      "type": "function"
    },
    {
      "constant": true,
      "inputs": [],
      "name": "minPercentageIncrease",
      "outputs": [
        {
          "name": "",
          "type": "uint256"
        }
      ],
      "payable": false,
      "stateMutability": "view",
      "type": "function"
    },
    {
      "constant": true,
      "inputs": [
        {
          "name": "",
          "type": "address"
        }
      ],
      "name": "houseAccounts",
      "outputs": [
        {
          "name": "",
          "type": "uint256"
        }
      ],
      "payable": false,
      "stateMutability": "view",
      "type": "function"
    },
    {
      "constant": true,
      "inputs": [
        {
          "name": "",
          "type": "address"
        }
      ],
      "name": "housePercentages",
      "outputs": [
        {
          "name": "numerator",
          "type": "uint256"
        },
        {
          "name": "denominator",
          "type": "uint256"
        }
      ],
      "payable": false,
      "stateMutability": "view",
      "type": "function"
    },
    {
      "constant": true,
      "inputs": [],
      "name": "owner",
      "outputs": [
        {
          "name": "",
          "type": "address"
        }
      ],
      "payable": false,
      "stateMutability": "view",
      "type": "function"
    },
    {
      "constant": true,
      "inputs": [
        {
          "name": "",
          "type": "uint256"
        },
        {
          "name": "",
          "type": "uint256"
        }
      ],
      "name": "outcomes",
      "outputs": [
        {
          "name": "",
          "type": "uint256"
        }
      ],
      "payable": false,
      "stateMutability": "view",
      "type": "function"
    },
    {
      "constant": true,
      "inputs": [
        {
          "name": "",
          "type": "uint256"
        }
      ],
      "name": "houseMemberArray",
      "outputs": [
        {
          "name": "",
          "type": "address"
        }
      ],
      "payable": false,
      "stateMutability": "view",
      "type": "function"
    },
    {
      "constant": true,
      "inputs": [
        {
          "name": "",
          "type": "uint256"
        }
      ],
      "name": "spun",
      "outputs": [
        {
          "name": "",
          "type": "bool"
        }
      ],
      "payable": false,
      "stateMutability": "view",
      "type": "function"
    },
    {
      "constant": true,
      "inputs": [],
      "name": "nonceForRandom",
      "outputs": [
        {
          "name": "",
          "type": "uint256"
        }
      ],
      "payable": false,
      "stateMutability": "view",
      "type": "function"
    },
    {
      "constant": true,
      "inputs": [
        {
          "name": "",
          "type": "uint256"
        }
      ],
      "name": "numSymbols",
      "outputs": [
        {
          "name": "",
          "type": "uint256"
        }
      ],
      "payable": false,
      "stateMutability": "view",
      "type": "function"
    },
    {
      "constant": true,
      "inputs": [],
      "name": "blockDelay",
      "outputs": [
        {
          "name": "",
          "type": "uint256"
        }
      ],
      "payable": false,
      "stateMutability": "view",
      "type": "function"
    },
    {
      "constant": true,
      "inputs": [],
      "name": "minFundDivisor",
      "outputs": [
        {
          "name": "",
          "type": "uint256"
        }
      ],
      "payable": false,
      "stateMutability": "view",
      "type": "function"
    },
    {
      "constant": true,
      "inputs": [
        {
          "name": "",
          "type": "uint256"
        }
      ],
      "name": "machine",
      "outputs": [
        {
          "name": "probDenominator",
          "type": "uint256"
        }
      ],
      "payable": false,
      "stateMutability": "view",
      "type": "function"
    },
    {
      "constant": true,
      "inputs": [],
      "name": "maxBetAsBalancePercentage",
      "outputs": [
        {
          "name": "",
          "type": "uint256"
        }
      ],
      "payable": false,
      "stateMutability": "view",
      "type": "function"
    },
    {
      "inputs": [],
      "payable": true,
      "stateMutability": "payable",
      "type": "constructor"
    },
    {
      "anonymous": false,
      "inputs": [
        {
          "indexed": false,
          "name": "id",
          "type": "uint256"
        },
        {
          "indexed": false,
          "name": "real0",
          "type": "uint256"
        },
        {
          "indexed": false,
          "name": "real1",
          "type": "uint256"
        },
        {
          "indexed": false,
          "name": "award",
          "type": "uint256"
        }
      ],
      "name": "Spin",
      "type": "event"
    },
    {
      "anonymous": false,
      "inputs": [
        {
          "indexed": false,
          "name": "user",
          "type": "address"
        },
        {
          "indexed": false,
          "name": "amount",
          "type": "uint256"
        },
        {
          "indexed": false,
          "name": "block",
          "type": "uint256"
        },
        {
          "indexed": false,
          "name": "counter",
          "type": "uint256"
        }
      ],
      "name": "BetPlaced",
      "type": "event"
    },
    {
      "constant": false,
      "inputs": [],
      "name": "wager",
      "outputs": [],
      "payable": true,
      "stateMutability": "payable",
      "type": "function"
    },
    {
      "constant": false,
      "inputs": [
        {
          "name": "id",
          "type": "uint256"
        }
      ],
      "name": "outcomeDetermine",
      "outputs": [],
      "payable": false,
      "stateMutability": "nonpayable",
      "type": "function"
    },
    {
      "constant": false,
      "inputs": [
        {
          "name": "id",
          "type": "uint256"
        }
      ],
      "name": "spin",
      "outputs": [],
      "payable": false,
      "stateMutability": "nonpayable",
      "type": "function"
    },
    {
      "constant": true,
      "inputs": [
        {
          "name": "a",
          "type": "uint256"
        },
        {
          "name": "b",
          "type": "uint256"
        }
      ],
      "name": "gcdCalculate",
      "outputs": [
        {
          "name": "",
          "type": "uint256"
        }
      ],
      "payable": false,
      "stateMutability": "pure",
      "type": "function"
    },
    {
      "constant": false,
      "inputs": [],
      "name": "calculateHousePercentages",
      "outputs": [],
      "payable": false,
      "stateMutability": "nonpayable",
      "type": "function"
    },
    {
      "constant": false,
      "inputs": [
        {
          "name": "amount",
          "type": "uint256"
        }
      ],
      "name": "setMinFundDivisor",
      "outputs": [],
      "payable": false,
      "stateMutability": "nonpayable",
      "type": "function"
    },
    {
      "constant": true,
      "inputs": [
        {
          "name": "amount",
          "type": "uint256"
        }
      ],
      "name": "multipleOf",
      "outputs": [
        {
          "name": "",
          "type": "bool"
        }
      ],
      "payable": false,
      "stateMutability": "view",
      "type": "function"
    },
    {
      "constant": false,
      "inputs": [],
      "name": "fund",
      "outputs": [],
      "payable": true,
      "stateMutability": "payable",
      "type": "function"
    },
    {
      "constant": false,
      "inputs": [
        {
          "name": "houseMember",
          "type": "address"
        }
      ],
      "name": "houseWithdraw",
      "outputs": [],
      "payable": false,
      "stateMutability": "nonpayable",
      "type": "function"
    },
    {
      "constant": false,
      "inputs": [],
      "name": "kill",
      "outputs": [],
      "payable": false,
      "stateMutability": "nonpayable",
      "type": "function"
    },
    {
      "constant": true,
      "inputs": [
        {
          "name": "id",
          "type": "uint256"
        }
      ],
      "name": "outcomeGet",
      "outputs": [
        {
          "name": "",
          "type": "uint256[2]"
        }
      ],
      "payable": false,
      "stateMutability": "view",
      "type": "function"
    },
    {
      "constant": true,
      "inputs": [],
      "name": "getBalance",
      "outputs": [
        {
          "name": "",
          "type": "uint256"
        }
      ],
      "payable": false,
      "stateMutability": "view",
      "type": "function"
    }
  ],
  "bytecode": "0x6080604052633b9aca006000556000546001556000601e556000601f5533600260006101000a81548173ffffffffffffffffffffffffffffffffffffffff021916908373ffffffffffffffffffffffffffffffffffffffff160217905550620000766200007c640100000000026401000000009004565b620002ed565b6064602260006002811015156200008f57fe5b6002020160000181905550608060405190810160405280603160ff168152602001606160ff168152602001606260ff168152602001606360ff1681525060226000600281101515620000dd57fe5b60020201600101906004620000f49291906200026e565b506064602260016002811015156200010857fe5b6002020160000181905550608060405190810160405280600160ff168152602001600260ff168152602001603260ff168152602001606360ff16815250602260016002811015156200015657fe5b600202016001019060046200016d9291906200026e565b5060008090505b600260ff168160ff1610156200021057600160228260ff166002811015156200019957fe5b60020201600001540360228260ff16600281101515620001b557fe5b60020201600101600160228460ff16600281101515620001d157fe5b600202016001018054905003815481101515620001ea57fe5b90600052602060002001541415156200020257600080fd5b808060010191505062000174565b5060008090505b600260ff168160ff1610156200026b5760228160ff166002811015156200023a57fe5b600202016001018054905060208260ff166002811015156200025857fe5b0181905550808060010191505062000217565b50565b828054828255906000526020600020908101928215620002b2579160200282015b82811115620002b1578251829060ff169055916020019190600101906200028f565b5b509050620002c19190620002c5565b5090565b620002ea91905b80821115620002e6576000816000905550600101620002cc565b5090565b90565b611dc680620002fd6000396000f3fe608060405260043610610175576000357c0100000000000000000000000000000000000000000000000000000000900463ffffffff16806312065fe01461017a57806322af00fa146101a55780632ac485aa1461022e5780633a2080001461025957806340d36d0d1461028457806341c0e1b5146102bf57806361bc221a146102d657806365ac7fa614610301578063667d5d221461033c57806372638b9c146103465780637bef46f5146103715780638c7fbb63146103d65780638da5cb5b14610442578063962254a414610499578063988a2312146104f25780639e30f05d14610509578063a5b6ea8f14610584578063b60d4288146105bf578063b90da3ad146105c9578063c947f0611461061c578063d692857514610647578063d7c6fc2714610696578063d98f6088146106ef578063e427d0261461071a578063e566f2b214610745578063e64d567b14610798578063e9d3ea6b1461080f578063f797a81914610860578063fa60c0bc146108af575b600080fd5b34801561018657600080fd5b5061018f6108da565b6040518082815260200191505060405180910390f35b3480156101b157600080fd5b506101de600480360360208110156101c857600080fd5b81019080803590602001909291905050506108f9565b604051808473ffffffffffffffffffffffffffffffffffffffff1673ffffffffffffffffffffffffffffffffffffffff168152602001838152602001828152602001935050505060405180910390f35b34801561023a57600080fd5b50610243610943565b6040518082815260200191505060405180910390f35b34801561026557600080fd5b5061026e610948565b6040518082815260200191505060405180910390f35b34801561029057600080fd5b506102bd600480360360208110156102a757600080fd5b810190808035906020019092919050505061094e565b005b3480156102cb57600080fd5b506102d4610a3e565b005b3480156102e257600080fd5b506102eb610b2b565b6040518082815260200191505060405180910390f35b34801561030d57600080fd5b5061033a6004803603602081101561032457600080fd5b8101908080359060200190929190505050610b31565b005b610344610b97565b005b34801561035257600080fd5b5061035b610d2b565b6040518082815260200191505060405180910390f35b34801561037d57600080fd5b506103c06004803603602081101561039457600080fd5b81019080803573ffffffffffffffffffffffffffffffffffffffff169060200190929190505050610d30565b6040518082815260200191505060405180910390f35b3480156103e257600080fd5b50610425600480360360208110156103f957600080fd5b81019080803573ffffffffffffffffffffffffffffffffffffffff169060200190929190505050610d48565b604051808381526020018281526020019250505060405180910390f35b34801561044e57600080fd5b50610457610d6c565b604051808273ffffffffffffffffffffffffffffffffffffffff1673ffffffffffffffffffffffffffffffffffffffff16815260200191505060405180910390f35b3480156104a557600080fd5b506104dc600480360360408110156104bc57600080fd5b810190808035906020019092919080359060200190929190505050610d92565b6040518082815260200191505060405180910390f35b3480156104fe57600080fd5b50610507610db9565b005b34801561051557600080fd5b506105426004803603602081101561052c57600080fd5b81019080803590602001909291905050506110e8565b604051808273ffffffffffffffffffffffffffffffffffffffff1673ffffffffffffffffffffffffffffffffffffffff16815260200191505060405180910390f35b34801561059057600080fd5b506105bd600480360360208110156105a757600080fd5b810190808035906020019092919050505061111d565b005b6105c761133d565b005b3480156105d557600080fd5b50610602600480360360208110156105ec57600080fd5b8101908080359060200190929190505050611365565b604051808215151515815260200191505060405180910390f35b34801561062857600080fd5b50610631611385565b6040518082815260200191505060405180910390f35b34801561065357600080fd5b506106806004803603602081101561066a57600080fd5b810190808035906020019092919050505061138b565b6040518082815260200191505060405180910390f35b3480156106a257600080fd5b506106d9600480360360408110156106b957600080fd5b8101908080359060200190929190803590602001909291905050506113a5565b6040518082815260200191505060405180910390f35b3480156106fb57600080fd5b506107046113d6565b6040518082815260200191505060405180910390f35b34801561072657600080fd5b5061072f6113db565b6040518082815260200191505060405180910390f35b34801561075157600080fd5b5061077e6004803603602081101561076857600080fd5b81019080803590602001909291905050506113e1565b604051808215151515815260200191505060405180910390f35b3480156107a457600080fd5b506107d1600480360360208110156107bb57600080fd5b81019080803590602001909291905050506113fa565b6040518082600260200280838360005b838110156107fc5780820151818401526020810190506107e1565b5050505090500191505060405180910390f35b34801561081b57600080fd5b5061085e6004803603602081101561083257600080fd5b81019080803573ffffffffffffffffffffffffffffffffffffffff169060200190929190505050611458565b005b34801561086c57600080fd5b506108996004803603602081101561088357600080fd5b81019080803590602001909291905050506114fe565b6040518082815260200191505060405180910390f35b3480156108bb57600080fd5b506108c4611521565b6040518082815260200191505060405180910390f35b60003073ffffffffffffffffffffffffffffffffffffffff1631905090565b60036020528060005260406000206000915090508060000160009054906101000a900473ffffffffffffffffffffffffffffffffffffffff16908060010154908060020154905083565b601481565b60015481565b600080600090505b600260ff16811015610a155761098160228260028110151561097457fe5b6002020160000154611526565b915060008090505b60228260028110151561099857fe5b6002020160010180549050811015610a07576022826002811015156109b957fe5b60020201600101818154811015156109cd57fe5b9060005260206000200154831115156109fa57806005836002811015156109f057fe5b0181905550610a07565b8080600101915050610989565b508080600101915050610956565b50600560046000848152602001908152602001600020906002610a39929190611d16565b505050565b600260009054906101000a900473ffffffffffffffffffffffffffffffffffffffff1673ffffffffffffffffffffffffffffffffffffffff163373ffffffffffffffffffffffffffffffffffffffff16141515610a9a57600080fd5b60008090505b6014811015610aef57610ae2600a82601481101515610abb57fe5b0160009054906101000a900473ffffffffffffffffffffffffffffffffffffffff166115c9565b8080600101915050610aa0565b50600260009054906101000a900473ffffffffffffffffffffffffffffffffffffffff1673ffffffffffffffffffffffffffffffffffffffff16ff5b601e5481565b600260009054906101000a900473ffffffffffffffffffffffffffffffffffffffff1673ffffffffffffffffffffffffffffffffffffffff163373ffffffffffffffffffffffffffffffffffffffff16141515610b8d57600080fd5b8060008190555050565b600060015434811515610ba657fe5b06141515610bb357600080fd5b600a3073ffffffffffffffffffffffffffffffffffffffff1631811515610bd657fe5b043411151515610be557600080fd5b6060604051908101604052803373ffffffffffffffffffffffffffffffffffffffff1681526020013481526020016000430181525060036000601e54815260200190815260200160002060008201518160000160006101000a81548173ffffffffffffffffffffffffffffffffffffffff021916908373ffffffffffffffffffffffffffffffffffffffff1602179055506020820151816001015560408201518160020155905050610c9760016116e0565b7f7363e6581df4db69463222156be4a09656528b9f1302890fa4c0b60819b69fc6333460034301601e54604051808573ffffffffffffffffffffffffffffffffffffffff1673ffffffffffffffffffffffffffffffffffffffff16815260200184815260200183815260200182815260200194505050505060405180910390a1601e60008154809291906001019190505550565b601481565b60096020528060005260406000206000915090505481565b60086020528060005260406000206000915090508060000154908060010154905082565b600260009054906101000a900473ffffffffffffffffffffffffffffffffffffffff1681565b600460205281600052604060002081600281101515610dad57fe5b01600091509150505481565b600080600090505b60148110156110e457600060096000600a84601481101515610ddf57fe5b0160009054906101000a900473ffffffffffffffffffffffffffffffffffffffff1673ffffffffffffffffffffffffffffffffffffffff1673ffffffffffffffffffffffffffffffffffffffff168152602001908152602001600020541415610ebb57600060086000600a84601481101515610e5757fe5b0160009054906101000a900473ffffffffffffffffffffffffffffffffffffffff1673ffffffffffffffffffffffffffffffffffffffff1673ffffffffffffffffffffffffffffffffffffffff168152602001908152602001600020600001819055505b610f4b60096000600a84601481101515610ed157fe5b0160009054906101000a900473ffffffffffffffffffffffffffffffffffffffff1673ffffffffffffffffffffffffffffffffffffffff1673ffffffffffffffffffffffffffffffffffffffff168152602001908152602001600020543073ffffffffffffffffffffffffffffffffffffffff16316113a5565b91508160096000600a84601481101515610f6157fe5b0160009054906101000a900473ffffffffffffffffffffffffffffffffffffffff1673ffffffffffffffffffffffffffffffffffffffff1673ffffffffffffffffffffffffffffffffffffffff16815260200190815260200160002054811515610fc757fe5b0460086000600a84601481101515610fdb57fe5b0160009054906101000a900473ffffffffffffffffffffffffffffffffffffffff1673ffffffffffffffffffffffffffffffffffffffff1673ffffffffffffffffffffffffffffffffffffffff16815260200190815260200160002060000181905550813073ffffffffffffffffffffffffffffffffffffffff163181151561106057fe5b0460086000600a8460148110151561107457fe5b0160009054906101000a900473ffffffffffffffffffffffffffffffffffffffff1673ffffffffffffffffffffffffffffffffffffffff1673ffffffffffffffffffffffffffffffffffffffff168152602001908152602001600020600101819055508080600101915050610dc1565b5050565b600a816014811015156110f757fe5b016000915054906101000a900473ffffffffffffffffffffffffffffffffffffffff1681565b60006003600083815260200190815260200160002090508060000160009054906101000a900473ffffffffffffffffffffffffffffffffffffffff1673ffffffffffffffffffffffffffffffffffffffff163373ffffffffffffffffffffffffffffffffffffffff1614151561119257600080fd5b806002015443101515156111a557600080fd5b60ff81600201540143111515156111bb57600080fd5b6007600083815260200190815260200160002060009054906101000a900460ff161515156111e857600080fd5b6111f18261094e565b60016007600084815260200190815260200160002060006101000a81548160ff021916908315150217905550600061126a600560028060200260405190810160405280929190826002801561125b576020028201915b815481526020019060010190808311611247575b5050505050836001015461190f565b905061127660006116e0565b60008111156112c7573373ffffffffffffffffffffffffffffffffffffffff166108fc829081150290604051600060405180830381858888f193505050501580156112c5573d6000803e3d6000fd5b505b7facaa9afc806fc667c9d3d06a8ecc938f0534a43b48ec47f91ac101034ff5610783600560006002811015156112f957fe5b01546005600160028110151561130b57fe5b0154846040518085815260200184815260200183815260200182815260200194505050505060405180910390a1505050565b611346346113e1565b151561135157600080fd5b61135b3334611961565b611363610db9565b565b60076020528060005260406000206000915054906101000a900460ff1681565b601f5481565b60208160028110151561139a57fe5b016000915090505481565b6000805b6000831415156113cc5782905082848115156113c157fe5b0692508093506113a9565b8391505092915050565b600081565b60005481565b600080600054838115156113f157fe5b06149050919050565b611402611d53565b6004600083815260200190815260200160002060028060200260405190810160405280929190826002801561144c576020028201915b815481526020019060010190808311611438575b50505050509050919050565b8073ffffffffffffffffffffffffffffffffffffffff163373ffffffffffffffffffffffffffffffffffffffff1614806114df5750600260009054906101000a900473ffffffffffffffffffffffffffffffffffffffff1673ffffffffffffffffffffffffffffffffffffffff163373ffffffffffffffffffffffffffffffffffffffff16145b15156114ea57600080fd5b6114f3816115c9565b6114fb610db9565b50565b60228160028110151561150d57fe5b600202016000915090508060000154905081565b600a81565b600080824333601f54604051602001808481526020018373ffffffffffffffffffffffffffffffffffffffff1673ffffffffffffffffffffffffffffffffffffffff166c01000000000000000000000000028152601401828152602001935050505060405160208183030381529060405280519060200120600190048115156115ab57fe5b069050601f6000815480929190600101919050555080915050919050565b6000600960008373ffffffffffffffffffffffffffffffffffffffff1673ffffffffffffffffffffffffffffffffffffffff1681526020019081526020016000205411156116dd578073ffffffffffffffffffffffffffffffffffffffff166108fc600960008473ffffffffffffffffffffffffffffffffffffffff1673ffffffffffffffffffffffffffffffffffffffff168152602001908152602001600020549081150290604051600060405180830381858888f19350505050158015611696573d6000803e3d6000fd5b506000600960008373ffffffffffffffffffffffffffffffffffffffff1673ffffffffffffffffffffffffffffffffffffffff168152602001908152602001600020819055505b50565b60008060008090505b60148110156119095760086000600a8360148110151561170557fe5b0160009054906101000a900473ffffffffffffffffffffffffffffffffffffffff1673ffffffffffffffffffffffffffffffffffffffff1673ffffffffffffffffffffffffffffffffffffffff16815260200190815260200160002060000154925060086000600a8360148110151561177a57fe5b0160009054906101000a900473ffffffffffffffffffffffffffffffffffffffff1673ffffffffffffffffffffffffffffffffffffffff1673ffffffffffffffffffffffffffffffffffffffff168152602001908152602001600020600101549150831561187157818334028115156117ef57fe5b0460096000600a8460148110151561180357fe5b0160009054906101000a900473ffffffffffffffffffffffffffffffffffffffff1673ffffffffffffffffffffffffffffffffffffffff1673ffffffffffffffffffffffffffffffffffffffff168152602001908152602001600020600082825401925050819055506118fc565b8183340281151561187e57fe5b0460096000600a8460148110151561189257fe5b0160009054906101000a900473ffffffffffffffffffffffffffffffffffffffff1673ffffffffffffffffffffffffffffffffffffffff1673ffffffffffffffffffffffffffffffffffffffff168152602001908152602001600020600082825403925050819055505b80806001019150506116e9565b50505050565b60008083600060028110151561192157fe5b60200201511480156119465750600183600160028110151561193f57fe5b6020020151145b156119565781600502905061195b565b600090505b92915050565b600060096000600a600060148110151561197757fe5b0160009054906101000a900473ffffffffffffffffffffffffffffffffffffffff1673ffffffffffffffffffffffffffffffffffffffff1673ffffffffffffffffffffffffffffffffffffffff1681526020019081526020016000205490506000809050600080600090505b6014811015611c0557600a816014811015156119fb57fe5b0160009054906101000a900473ffffffffffffffffffffffffffffffffffffffff1691506000600960008473ffffffffffffffffffffffffffffffffffffffff1673ffffffffffffffffffffffffffffffffffffffff168152602001908152602001600020541415611b0b5785600a82601481101515611a7757fe5b0160006101000a81548173ffffffffffffffffffffffffffffffffffffffff021916908373ffffffffffffffffffffffffffffffffffffffff16021790555084600960008873ffffffffffffffffffffffffffffffffffffffff1673ffffffffffffffffffffffffffffffffffffffff16815260200190815260200160002081905550611b02610db9565b50505050611d12565b8360096000600a84601481101515611b1f57fe5b0160009054906101000a900473ffffffffffffffffffffffffffffffffffffffff1673ffffffffffffffffffffffffffffffffffffffff1673ffffffffffffffffffffffffffffffffffffffff168152602001908152602001600020541015611bf85760096000600a83601481101515611b9557fe5b0160009054906101000a900473ffffffffffffffffffffffffffffffffffffffff1673ffffffffffffffffffffffffffffffffffffffff1673ffffffffffffffffffffffffffffffffffffffff1681526020019081526020016000205493508092505b80806001019150506119e3565b50606460148402811515611c1557fe5b048301841115611cfe57600a82601481101515611c2e57fe5b0160009054906101000a900473ffffffffffffffffffffffffffffffffffffffff169050611c5b816115c9565b84600a83601481101515611c6b57fe5b0160006101000a81548173ffffffffffffffffffffffffffffffffffffffff021916908373ffffffffffffffffffffffffffffffffffffffff16021790555083600960008373ffffffffffffffffffffffffffffffffffffffff1673ffffffffffffffffffffffffffffffffffffffff16815260200190815260200160002081905550611cf6610db9565b505050611d12565b60016000141515611d0e57600080fd5b5050505b5050565b8260028101928215611d42579182015b82811115611d41578254825591600101919060010190611d26565b5b509050611d4f9190611d75565b5090565b6040805190810160405280600290602082028038833980820191505090505090565b611d9791905b80821115611d93576000816000905550600101611d7b565b5090565b9056fea165627a7a723058206a67d58999f2f9d997ce3caf99134b880233888bd7143e21d8061ffcad1e69f50029",
  "source": "pragma solidity ^0.5.0;\n\ncontract SlotMachine {\n\n  // STRUCTURES\n  struct Reel {\n    uint probDenominator;\n    //  THESE CUTOFFS CORRESPOND TO THE PROBABILITIES OF THE EVENTS\n    //  WHEN WE GENERATE A RANDOM NUMBER IN [0, probDenominator - 1]\n    uint[] probCutoffs;\n  }\n\n  struct Bet {\n    address user;\n    uint amount;\n    uint block;\n  }\n\n  struct HousePercentage {\n    uint numerator;\n    uint denominator;\n  }\n\n  // PARAMETERS\n  uint constant public maxHouseMembers = 20; // max number of investors/owners\n  uint constant public minPercentageIncrease = 20; // min overage for kicking someone on funding\n  uint constant public blockDelay = 0; // 0 for debugging, 3 for production\n  uint constant public maxBetAsBalancePercentage = 10;  // percentage of house max bet\n  uint public minFundDivisor = 1000000000;\n  uint public minBetDivisor = minFundDivisor;\n\n\n  address payable public owner;\n  mapping(uint => Bet) public bets;\n  mapping(uint => uint[numReel]) public outcomes;\n  uint[numReel] thisOutcome;\n  mapping(uint => bool) public spun;\n  mapping(address => HousePercentage) public housePercentages;\n  mapping(address => uint) public houseAccounts;\n  address payable [maxHouseMembers] public houseMemberArray;\n  uint public counter = 0;\n  uint public nonceForRandom = 0;\n\n  // ******************************\n  // DEFINE THE MACHINE\n\n  // machine specific constants\n  uint8 constant numReel = 2;\n\n  uint[numReel] public numSymbols;\n  Reel[numReel] public machine;\n\n  // CALCULATE THE PAYOUT\n  function paytable(uint[numReel] memory outcome, uint betAmount) internal pure returns (uint) {\n    if (outcome[0] == 0 && outcome[1] == 1) {\n      return 5 * betAmount;\n    }\n    else {\n      return 0;\n    }\n  }\n\n  // DEFINE THE PROBABILITIES FOR THE REEL SYMBOLS\n  function makeMachine() internal {\n    machine[0].probDenominator = 100;\n    machine[0].probCutoffs = [49,97,98,99];\n\n    machine[1].probDenominator = 100;\n    machine[1].probCutoffs = [1,2,50,99];\n\n    // check that last cutoff is the max random number\n    for (uint8 i = 0; i < numReel; i++) {\n      require(machine[i].probCutoffs[machine[i].probCutoffs.length - 1] ==\n              machine[i].probDenominator - 1);\n    }\n\n    // record the number of symbols for each reel\n    for (uint8 i = 0; i < numReel; i++) {\n      numSymbols[i] = machine[i].probCutoffs.length;\n    }\n  }\n\n  event Spin(uint id, uint real0, uint real1, uint award); // specific to machine!\n  // ***************************************\n\n  event BetPlaced(address user, uint amount, uint block, uint counter);\n\n  constructor () public payable {\n    owner = msg.sender;\n    makeMachine();\n  }\n\n  function distributeAmount(bool bet) internal {\n    uint numer;\n    uint denom;\n\n    for (uint i = 0; i < maxHouseMembers; i++) {\n      numer = housePercentages[houseMemberArray[i]].numerator;\n      denom = housePercentages[houseMemberArray[i]].denominator;\n\n      // INCOMING BET\n      if (bet) {\n        houseAccounts[houseMemberArray[i]] += (msg.value * numer)/denom;\n      }\n      // OUTGOING PAYOUT\n      else {\n        houseAccounts[houseMemberArray[i]] -= (msg.value * numer)/denom;\n      }\n    }\n  }\n\n  // PLACE A WAGER\n  function wager () payable public {\n    require(msg.value % minBetDivisor == 0);\n    require(msg.value <= address(this).balance/maxBetAsBalancePercentage);\n    bets[counter] = Bet(msg.sender, msg.value, block.number + blockDelay);\n    distributeAmount(true);\n    emit BetPlaced(msg.sender, msg.value, block.number + 3, counter);\n    counter++;\n  }\n\n  // GENERATE A RANDOM INTEGER MODULO THE INPUT\n  function random(uint modulus) internal returns (uint) {\n    uint randomnumber = uint(keccak256(abi.encodePacked(block.number, msg.sender, nonceForRandom))) % modulus;\n    nonceForRandom++;\n    return randomnumber;\n  }\n\n  // DETERMINE THE OUTCOME SYMBOL FOR EACH REEL\n  function outcomeDetermine(uint id) public {\n    uint thisRandom;\n\n    for (uint i = 0; i < numReel; i++) {\n      thisRandom = random(machine[i].probDenominator);\n      // CONVERT RANDOM NUMBER TO EVENT\n      for (uint j = 0; j < machine[i].probCutoffs.length; j++){\n        if (thisRandom <= machine[i].probCutoffs[j]) {\n          thisOutcome[i] = j;\n          break;\n        }\n      }\n    }\n    outcomes[id] = thisOutcome;\n  }\n\n  // SPIN THE REELS AND PAYOUT\n  function spin (uint id) public {\n      Bet storage bet = bets[id];\n      require(msg.sender == bet.user);\n      require(block.number >= bet.block);\n      require(block.number <= bet.block + 255); // make this into a refund\n      require(!spun[id]);\n\n      outcomeDetermine(id);\n\n      spun[id] = true;\n      uint award = paytable(thisOutcome, bet.amount);\n      distributeAmount(false);\n      if (award > 0) {\n        msg.sender.transfer(award);\n      }\n\n      // CUSTOMIZE THIS EVENT FOR THE MACHINE STRUCTURE\n      emit Spin(id, thisOutcome[0], thisOutcome[1], award);\n  }\n\n  // TRY TO ADD A NEW MEMBER (OWNER/INVESTOR)\n  function addMember(address payable addressToAdd, uint initialFund) private {\n\n    uint currentMin = houseAccounts[houseMemberArray[0]];\n    uint currentMinIndex = 0;\n    address payable thisAddress;\n\n    for (uint i = 0; i < maxHouseMembers; i++){\n      thisAddress = houseMemberArray[i];\n      if (houseAccounts[thisAddress] == 0) {\n          houseMemberArray[i] = addressToAdd;\n          houseAccounts[addressToAdd] = initialFund;\n          calculateHousePercentages();\n          return;\n      }\n      else {\n        if (houseAccounts[houseMemberArray[i]] < currentMin) {\n          currentMin = houseAccounts[houseMemberArray[i]];\n          currentMinIndex = i;\n        }\n      }\n    }\n    if ( initialFund > currentMin + ((currentMin * minPercentageIncrease)/100) ) {\n      thisAddress = houseMemberArray[currentMinIndex];\n      houseRemoveMember(thisAddress);\n      houseMemberArray[currentMinIndex] = addressToAdd;\n      houseAccounts[thisAddress] = initialFund;\n      calculateHousePercentages();\n      return;\n    }\n    else {\n      require(0 == 1);\n    }\n  }\n\n  // EUCLID'S ALGORITHM FOR GREATEST COMMON DIVISOR\n  function gcdCalculate(uint a, uint b) public pure returns (uint) {\n    uint t;\n    while (b != 0) {\n      t = b;\n      b = a % b;\n      a = t;\n    }\n    return a;\n  }\n\n  // RECALULATE ALL OWNERSHIP PERCENTAGES\n  function calculateHousePercentages() public {\n    uint gcd;\n\n    for (uint i = 0; i < maxHouseMembers; i++) {\n      if (houseAccounts[houseMemberArray[i]] == 0) {\n        housePercentages[houseMemberArray[i]].numerator = 0;\n      }\n      gcd = gcdCalculate(houseAccounts[houseMemberArray[i]], address(this).balance);\n\n      housePercentages[houseMemberArray[i]].numerator = houseAccounts[houseMemberArray[i]]/gcd;\n      housePercentages[houseMemberArray[i]].denominator = address(this).balance/gcd;\n    }\n  }\n\n  //  ALLOW OWNER TO SET AMOUNT WHICH MUST EVENLY DIVIDE ALL FUNDS\n  function setMinFundDivisor(uint amount) public {\n    require(msg.sender == owner);\n    minFundDivisor = amount;\n  }\n\n  // CHECK THAT INITIAL FUND IS MULTIPLE OF minFundDivisor\n  function multipleOf(uint amount) public view returns (bool) {\n    return amount % minFundDivisor == 0;\n  }\n\n  // FUND THE CASINO\n  function fund () public payable {\n    require(multipleOf(msg.value));\n    addMember(msg.sender, msg.value);\n    calculateHousePercentages();\n  }\n\n  // REMOVE A MEMBER (OWNER/INVESTOR)\n  function houseRemoveMember(address payable houseMember) private {\n    if (houseAccounts[houseMember] > 0) {\n      houseMember.transfer(houseAccounts[houseMember]);\n      houseAccounts[houseMember] = 0;\n    }\n  }\n\n  // WITHDRAW AND REMOVE MEMBER\n  function houseWithdraw (address payable houseMember) public {\n    require(msg.sender == houseMember || msg.sender == owner);\n    houseRemoveMember(houseMember);\n    calculateHousePercentages();\n  }\n\n  // TRANSFER ALL FUNDS TO MEMBERS AND DESTROY THE CONTRACT\n  function kill () public {\n    require(msg.sender == owner);\n    for (uint i = 0; i < maxHouseMembers; i++) {\n      houseRemoveMember(houseMemberArray[i]);\n    }\n    selfdestruct(owner);\n  }\n\n  // GETTERS FOR DEBUGGING\n  function outcomeGet(uint id) public view returns (uint[numReel] memory) {\n    return outcomes[id];\n  }\n\n  function getBalance () view public returns (uint) {\n    return address(this).balance;\n  }\n}\n",
  "sourcePath": "/Users/mettinger/github/casino/contracts/slotMachine.sol",
  "compiler": {
    "name": "solc",
    "version": "0.5.0+commit.1d4f565a.Emscripten.clang"
  },
  "schemaVersion": "3.0.1",
  "updatedAt": "2019-01-17T19:26:39.904Z",
  "devdoc": {
    "methods": {}
  },
  "userdoc": {
    "methods": {}
  }
}